:100000000C9464000C948C000C948C000C948C0068
:100010000C948C000C948C000C948C000C948C0030
:100020000C948C000C948C000C948C000C94600547
:100030000C948C000C948C000C948C000C948C0010
:100040000C94F50D0C948C000C94E8100C941A117F
:100050000C948C000C948C000C948C000C948C00F0
:100060000C948C000C948C0000000008000201002D
:100070000003040700000000000000000102040863
:100080001020408001020408102001020408102002
:10009000040404040404040402020202020203032E
:1000A00003030303000000002300260029000000D2
:1000B0000000250028002B0000000000240027007D
:1000C0002A00FA044A11280511241FBECFEFD8E0F8
:1000D000DEBFCDBF13E0A0E0B1E0E6EAFDE202C082
:1000E00005900D92AE37B107D9F724E0AEE7B3E043
:1000F00001C01D92A139B207E1F710E0C6ECD0E0D3
:1001000004C02297FE010E943214C23CD107C9F7F5
:100110000E948E110C94C6160C94000085E893E0A2
:100120000E9448128BE893E00E94481281E993E014
:100130000C94481220E042E060E185EA93E00E94DE
:100140000A0861E080910E010E940B0F60E080912F
:100150000A010E940B0F60E080910C010E940B0FBE
:10016000E091A503F091A6030280F381E02D47E022
:1001700050E060E171E085EA93E0099580910C011F
:100180000E947A0F90938403809383036EE070E063
:1001900080E893E00E94B60668EE73E080E090E0AD
:1001A0000E94620E8091830390918403019731F441
:1001B00066E470E080E893E00E94EF06809183039C
:1001C00090918403892B31F460EA70E080E893E039
:1001D0000E94EF0626E040E855E260E070E080EF24
:1001E00093E00E9486100E942A0587E993E00C9410
:1001F000A30ACF92DF92EF92FF920F931F93CF93B8
:10020000DF93CDB7DEB72C970FB6F894DEBF0FBEE5
:10021000CDBFF82EC92EE62E6FE673E081E993E09C
:100220000E94EC12DF2C0F2D1C2D802F8D198E15A6
:1002300018F5F80161918F0140E1CE0107960E9407
:10024000041361E973E0CE0101960E94E312BE013E
:10025000695F7F4FCE0101960E945D13BC0181E969
:1002600093E00E94CC12CE0101960E944812CE016A
:1002700007960E944812D9CF2C960FB6F894DEBF8D
:100280000FBECDBFDF91CF911F910F91FF90EF90E7
:10029000DF90CF90089580910A010E947A0F909389
:1002A0007F0380937E03019709F049C068EE73E0F5
:1002B00080E090E00E94620E66E470E080E893E0E7
:1002C0000E94EF0685EA93E00E94E90768E171E089
:1002D00085EA93E00E94E91168E873E180E090E02C
:1002E0000E94620E80910C010E947A0F9093840309
:1002F0008093830380918303909184030197C9F4D1
:1003000080910C010E947A0F909384038093830361
:1003100085EA93E00E94E90761E271E085EA93E0F3
:100320000E94E9116CE271E080E090E00E94620EB0
:10033000E1CF60ED77E080E090E00E94620E60EA3D
:1003400070E080E893E00C94EF0680910C010E942D
:100350007A0F90938403809383030E944B018091D2
:10036000830390918403892B09F00AC368EC70E041
:1003700080E090E00E94620E60EA70E080E893E026
:100380000E94EF0685EA93E00E94E9076BE271E0C4
:1003900085EA93E00E94E91162E370E080E090E07A
:1003A0000E94620E87E993E00E94CD0D882309F434
:1003B00020C387E993E00E94EC0D882309F419C358
:1003C0006091970388E993E00E94F9006BE873E07D
:1003D00081E993E00E94A0138111E1C065E873E018
:1003E00081E993E00E94A0138111D9C065E371E017
:1003F00081E993E00E94B3138111D1C06EE371E0F3
:1004000081E993E00E94B3138111C9C067E471E0F0
:1004100081E993E00E94B3138111C1C060E571E0EE
:1004200081E993E00E94B3138111B9C069E571E0DD
:1004300081E993E00E94B3138111B1C062E671E0DB
:1004400081E993E00E94B3138111A9C06BE671E0CA
:1004500081E993E00E94B3138111A1C064E771E0C8
:1004600081E993E00E94B313811199C06DE771E0B7
:1004700081E993E00E94B313811191C066E871E0B5
:1004800081E993E00E94B313811189C06FE871E0A4
:1004900081E993E00E94B313811181C068E971E0A2
:1004A00081E993E00E94B313811179C061EA71E0A0
:1004B00081E993E00E94B313811171C06AEA71E08F
:1004C00081E993E00E94B313811169C063EB71E08D
:1004D00081E993E00E94B313811161C06CEB71E07C
:1004E00081E993E00E94B313811159C065EC71E07A
:1004F00081E993E00E94B313811151C06EEC71E069
:1005000081E993E00E94B313811149C067ED71E066
:1005100081E993E00E94B313811141C060EE71E064
:1005200081E993E00E94B313811139C069EE71E053
:1005300081E993E00E94B313811131C062EF71E051
:1005400081E993E00E94B313811129C06BEF71E040
:1005500081E993E00E94B313811121C064E072E04D
:1005600081E993E00E94B313811119C06DE072E03C
:1005700081E993E00E94B313811111C066E172E03A
:1005800081E993E00E94B313811109C06FE172E029
:1005900081E993E00E94B313882309F4BEC161E9A5
:1005A00073E080EF93E00E94EF1166E470E080E872
:1005B00093E00E94EF0661E080910E010E94440FDB
:1005C00068EC70E080E090E00E94620E60E0809154
:1005D0000E010E94440F85EA93E00E94E90761E959
:1005E00073E080EF93E00E94EF116BE873E081E924
:1005F00093E00E94A013882331F068E272E085EA5C
:1006000093E00E94E91165E873E081E993E00E94BC
:10061000A013882331F066E372E085EA93E00E943C
:10062000E91165E371E081E993E00E94B313882347
:1006300031F061E273E085EA93E00E94E9116EE334
:1006400071E081E993E00E94B313882331F066E4FE
:1006500072E085EA93E00E94E91167E471E081E9C4
:1006600093E00E94B313882331F061E273E085EADE
:1006700093E00E94E91160E571E081E993E00E9456
:10068000B313882331F06EE472E085EA93E00E94B0
:10069000E91169E571E081E993E00E94B3138823D1
:1006A00031F067E572E085EA93E00E94E91162E6C5
:1006B00071E081E993E00E94B313882331F061E295
:1006C00073E085EA93E00E94E9116BE671E081E94D
:1006D00093E00E94B313882331F064E672E085EA68
:1006E00093E00E94E91164E771E081E993E00E94E0
:1006F000B313882331F063E772E085EA93E00E9448
:10070000E9116DE771E081E993E00E94B31388235A
:1007100031F06DE772E085EA93E00E94E91166E846
:1007200071E081E993E00E94B313882331F068E817
:1007300072E085EA93E00E94E9116FE871E081E9D7
:1007400093E00E94B313882331F065E972E085EAF3
:1007500093E00E94E91168E971E081E993E00E9469
:10076000B313882331F06FE972E085EA93E00E94C9
:10077000E91161EA71E081E993E00E94B3138823F3
:1007800031F067EA72E085EA93E00E94E9116AEAD3
:1007900071E081E993E00E94B313882331F064EBA8
:1007A00072E085EA93E00E94E91163EB71E081E970
:1007B00093E00E94B313882331F060EC72E085EA85
:1007C00093E00E94E9116CEB71E081E993E00E94F3
:1007D000B313882331F06DEC72E085EA93E00E9458
:1007E000E91164E072E081E993E00E94B313882389
:1007F00031F06CED72E085EA93E00E94E91169EE58
:1008000071E081E993E00E94B313882391F068EED0
:1008100072E085EA93E00E94E91141E060E085EA38
:1008200093E00E94F0076AE073E085EA93E00E949B
:10083000E91160EE71E081E993E00E94B31388232F
:1008400091F066EF72E085EA93E00E94E91141E0E1
:1008500060E085EA93E00E94F00765E073E085EAD6
:1008600093E00E94E9116EEC71E081E993E00E944F
:10087000B313882331F064E173E085EA93E00E94CA
:10088000E91165EC71E081E993E00E94B3138823DC
:1008900031F060E273E085EA93E00E94E91167EDD0
:1008A00071E081E993E00E94B313882331F066E29E
:1008B00073E085EA93E00E94E9116FE172E081E95B
:1008C00093E00E94B313882331F062E373E085EA7A
:1008D00093E00E94E91166E172E081E993E00E94F1
:1008E000B313882331F069E373E085EA93E00E9453
:1008F000E9116DE072E081E993E00E94B31388236F
:1009000031F065E473E085EA93E00E94E91168EB59
:100910007BE080E090E00E94620E80910C010E94DA
:100920007A0F909384038093830380918303909143
:1009300084030197C9F480910C010E947A0F90936F
:1009400084038093830385EA93E00E94E90761E2D0
:1009500071E085EA93E00E94E9116CE271E080E0C9
:1009600090E00E94620EE1CF60ED77E080E090E0E1
:100970000E94620E60EA70E080E893E00C94EF065B
:1009800060ED77E080E090E00E94620E66E470E047
:1009900080E893E00E94EF0668EE73E080E090E06C
:1009A0000E94620E80910C010E947A0F9093840342
:1009B0008093830380918303909184030197A1F630
:1009C00080910C010E947A0F90938403809383039B
:1009D00085EA93E00E94E90761E271E085EA93E02D
:1009E0000E94E9116CE271E080E090E00E94620EEA
:1009F000E1CF0895CF92EF920F9387E0C82E96E053
:100A0000E92E05E024E043E062E085EA93E00E94FD
:100A1000A80849E06AE087E993E00E9469096FE667
:100A200073E081E993E00E94B61262EF71E08BE817
:100A300093E00E94B6126BEF71E085E893E00E94AC
:100A4000B61280E893E00F91EF90CF900C941C06C3
:100A50000C948E00CF93CFB7F8948091C00381118E
:100A600027C0EAE9F0E08491E6E8F0E09491E82F0D
:100A7000F0E0EE0FFF1FE854FF4FA591B4918C9169
:100A8000892321F461E08AE00E94440F61E08AE05A
:100A90000E940B0F8CB580618CBD8CB580648CBDC1
:100AA00061E08DE00E940B0F61E08BE00E940B0F74
:100AB0008091C0038F5F8093C003CFBFCF91089513
:100AC0001F920F920FB60F9211242F933F934F93C3
:100AD0005F936F937F938F939F93AF93BF93EF93A6
:100AE000FF938091C20387FF05C01092850010928A
:100AF00084001AC02091C203332727FD30958091CE
:100B0000C10390E0281739077CF48091C20399272C
:100B100087FD9095FC01EE0FFF1FE80FF91FED53C5
:100B2000FC4F808186FD15C08091C2038F5F80934A
:100B3000C2032091C203332727FD30958091C10362
:100B400090E028173907BCF48091C2038C305CF127
:100B500012C08091C203992787FD9095FC01EE0F8A
:100B6000FF1FE80FF91FED53FC4F808160E08F738A
:100B70000E94440FD9CF8091840090918500049603
:100B800080349C4918F480E49CE905C0809184007D
:100B900090918500049690938900809388008FEF50
:100BA0008093C20338C020918400309185008091E9
:100BB000C203992787FD9095FC01EE0FFF1FE80FF8
:100BC000F91FED53FC4F81819281820F931F909307
:100BD0008900809388008091C203992787FD9095B2
:100BE000FC01EE0FFF1FE80FF91FED53FC4F808152
:100BF00086FF11C08091C203992787FD9095FC0163
:100C0000EE0FFF1FE80FF91FED53FC4F808161E0ED
:100C10008F730E94440FFF91EF91BF91AF919F910D
:100C20008F917F916F915F914F913F912F910F9095
:100C30000FBE0F901F9018952091C1032C30A0F487
:100C400031E0320F3093C103FC012083822F90E00A
:100C5000FC01EE0FFF1FE80FF91FED53FC4F88EB6F
:100C60009BE09283818308952FEFFC0120830895F8
:100C7000DF92EF92FF920F931F93CF93DF93EC01DC
:100C8000D62E7A01890188818C3008F066C061E037
:100C90008D2D0E940B0F8881A82FB0E0FD01EE0F73
:100CA000FF1FEA0FFB1FED53FC4F2D2D2F7390817B
:100CB000907C922B908360E272E06E197F0977FF3F
:100CC00002C06D5F7F4F75956795759567956983D0
:100CD00040E659E0401B510B57FF02C04D5F5F4F8C
:100CE00055954795559547954A836CE00E94E313C7
:100CF0009CE0899FB001112420E030E0A901460F5B
:100D0000571FFA01EE0FFF1FE40FF51FED53FC4FC5
:100D1000908196FD16C02F5F3F4F2C30310571F743
:100D200081110FC01092800082E0809381001092A8
:100D3000850010928400B19A80916F008260809348
:100D40006F00888190E0FC01EE0FFF1FE80FF91F94
:100D5000ED53FC4F8081806480838881DF91CF9147
:100D60001F910F91FF90EF90DF90089520E639E0FA
:100D700040E252E00C943806FC0180818C3070F522
:100D8000918128E830E0291B310997FD3395220F26
:100D9000331F220F331F621773077CF0928128E5FF
:100DA00032E0291B310997FD3395220F331F220FA3
:100DB000331F621773070CF49B0122503109220F75
:100DC000331F4FB7F89490E0FC01EE0FFF1FE80FC0
:100DD000F91FED53FC4F328321834FBF08954F928B
:100DE0005F926F927F92AF92BF92CF92DF92EF921B
:100DF000FF920F931F93CF93DF93EC01603282E059
:100E000078070CF040C077FD06C0653B71052CF0FB
:100E100064EB70E002C060E070E0898128E830E0B7
:100E2000281B310987FD3395220F331F220F331FF3
:100E30005901CC24B7FCC094DC2C882777FD809521
:100E4000982F2A8148E552E0421B510927FD53950E
:100E5000440F551F440F551F2A01662457FC609408
:100E6000762C7F926F925F924F9214EBE12EF12CD1
:100E700000E010E020E030E0A9010E9401120F9094
:100E80000F900F900F90CE01DF91CF911F910F9196
:100E9000FF90EF90DF90CF90BF90AF907F906F90DA
:100EA0005F904F900C94BC06CF93DF93EC0160E011
:100EB0008E810E94440F81E090E00E949C0E61E0D0
:100EC0008E810E94440F81E090E00E949C0E60E0C1
:100ED0008E810E94440F84E690E0DF91CF910C94C4
:100EE0009C0EEF92FF920F931F93CF93DF938C0191
:100EF000C0E0D0E0E62EF12CB7010C2E02C07595B3
:100F000067950A94E2F76170F801EC0FFD1F878185
:100F10000E94440F2196C430D10571F7C801DF91BA
:100F2000CF911F910F91FF90EF900C945407EF9287
:100F3000FF920F931F93CF93DF938C01C0E0D0E01B
:100F4000E62EF12CB7010C2E02C0759567950A9418
:100F5000E2F76170F801EC0FFD1F87810E94440FDA
:100F60002196C830D10571F7C801DF91CF911F914B
:100F70000F91FF90EF900C9454071F93CF93DF9342
:100F8000EC01162F642F8C810E94440F8D818F3FBE
:100F900019F060E00E94440F8F85612F84FF06C026
:100FA000CE01DF91CF911F910C94970770E084E000
:100FB000759567958A95E1F7CE010E947107612FBB
:100FC000CE01DF91CF911F910C94710740E00C94FA
:100FD000BD0761E00E94E60780ED97E00C949C0E4F
:100FE000443008F043E0FC012389421710F04FEF32
:100FF000420FFC01E40FF11D2489260F2068622FA7
:101000000C94E607FC016089262F2460208B6C601D
:101010000C94E6070F931F93CF93DF93EC014230BC
:1010200018F08F8588608F874B8B1C8A80E48D8BAE
:101030006E8B70E0605C7F4F6F8B222329F0413014
:1010400019F48F8584608F8761E08C810E940B0F7B
:101050008D818F3F19F061E00E940B0F61E08E815E
:101060000E940B0F00E010E08F8584FF03C088E032
:1010700090E002C084E090E00817190754F4FE01E4
:10108000E00FF11F61E087810E940B0F0F5F1F4F80
:10109000EBCF80E593EC0E949C0E60E08C810E9477
:1010A000440F60E08E810E94440F8D818F3F19F0C4
:1010B00060E00E94440F6F8564FD1DC063E0CE01B7
:1010C0000E94710784E991E10E949C0E63E0CE01C9
:1010D0000E94710784E991E10E949C0E63E0CE01B9
:1010E0000E94710786E990E00E949C0E62E0CE01AA
:1010F0000E94710716C06062CE010E94E60784E973
:1011000091E10E949C0E6F856062CE010E94E6070D
:1011100086E990E00E949C0E6F856062CE010E947D
:10112000E6076F856062CE010E94E60784E0888B47
:10113000CE010E940208CE010E94E90782E0898B5D
:1011400066E0CE01DF91CF911F910F910C94E607DD
:10115000CF92EF920F93FC011382128289E593E004
:101160009183808364838FEF858346832783008701
:10117000E186C2861386148615861686178620E0B9
:1011800041E060E1CF010F91EF90CF900C940A08FD
:1011900041E00E94BD0781E090E008952091BF03E7
:1011A000222399F03FB7F8942091BF03213059F4DE
:1011B0002DB32093BD034DB32091BE03209524236E
:1011C0002DBB3FBF02C03093BD038CBD9DBD0895B4
:1011D0008EBD00000DB407FEFDCF8EB50895809141
:1011E000BF03882361F09FB7F8942091BF038091DB
:1011F000BD03213019F48DBB9FBF08958FBF0895A3
:101200007F928F929F92AF92BF92CF92DF92EF9296
:10121000FF920F931F93CF93DF936C01162F942EA1
:10122000E9011E77106883E590E00E94CE0860E037
:10123000F60184850E94440F9A94812F0E94E80849
:101240007C2EEC2EFD2EAA24A394B12C8E2D871972
:10125000891528F581111AC00023C1F0802F812C37
:10126000883048F49501082E01C0220F0A94EAF74D
:10127000822A8F5FF5CF812F0E94E808982D9095E4
:10128000288192238821982B988305C0812F0E9462
:10129000E808F7018083FFEFEF1AFF0AD7CFC90DE7
:1012A000D11D80E00E94E808888361E0F601848512
:1012B0000E94440FDF91CF911F910F91FF90EF900B
:1012C000DF90CF90BF90AF909F908F907F900C94C5
:1012D000EF08FC01648745870895EF92FF921F9302
:1012E000CF93DF931F92CDB7DEB77C01162F83E536
:1012F00090E049830E94CE0860E0F70184850E9457
:10130000440F812F8E770E94E8084981842F0E9424
:10131000E80861E0F70184850E94440F0F90DF9197
:10132000CF911F91FF90EF900C94EF08CF92DF9236
:10133000EF92FF920F931F93CF93DF9300D0CDB71F
:10134000DEB78C01E62EF42E83E590E029833A8304
:101350000E94CE0860E0F80184850E94440F8E2D23
:101360008E770E94E8082981E22EC22E3A81D32E80
:101370008C2D8E198F1530F4F60181916F010E942A
:10138000E808F6CF61E0F80184850E94440F0F90D1
:101390000F90DF91CF911F910F91FF90EF90DF9011
:1013A000CF900C94EF081F93CF93DF93EC01162F8F
:1013B00083E590E00E94CE0860E08C850E94440F97
:1013C000812F8E7780680E94E80880E00E94E808FC
:1013D000182F61E08C850E94440F0E94EF08812F36
:1013E000DF91CF911F9108950F9341110E94000941
:1013F0000F910895EF92FF921F93CF93DF931F9267
:10140000CDB7DEB77C01162F49830E94D3094981ED
:10141000482B612FC7010F90DF91CF911F91FF9053
:10142000EF900C946D09EF92FF921F93CF93DF938F
:101430001F92CDB7DEB77C01162F49830E94D309D6
:10144000498140954823612FC7010F90DF91CF91CB
:101450001F91FF90EF900C946D09DF92EF92FF9235
:101460000F931F93CF93DF93EC018B01D42E79015F
:1014700040E062E00E946D0944E06AE0CE010E9413
:101480006D0940E864E1CE010E94FA0998014D2DF2
:1014900062E1CE010E94960943E062E0CE010E9423
:1014A0006D0908E813E16AE0CE010E94D30982FDCC
:1014B00005C001501109B9F783E012C040E062E0B5
:1014C000CE010E946D0964E4CE010E94D309F701A8
:1014D000808362E4CE010E94D309F701818380E01A
:1014E000DF91CF911F910F91FF90EF90DF900895C2
:1014F000CF93DF93EC014FE062E00E946D0962E35D
:1015000070E080E090E00E94620E62E0CE010E94F6
:10151000D30984FDFACFDF91CF910895CF93DF9364
:10152000EC0168E20E94D309982F9370933041F048
:10153000482F436068E2CE01DF91CF910C946D0992
:10154000DF91CF910895CF93DF93EC0161E08C851B
:101550000E940B0F61E08C850E94440F61E08D8535
:101560000E940B0F8D850E947A0F892B59F461E040
:101570008D850E94440F62E370E080E090E00E945D
:10158000620E03C0CE010E94780A40E864E5CE01F5
:101590000E946D0949EA66E5CE010E946D0943E0AB
:1015A00068E5CE010E946D0948EE6AE5CE010E9411
:1015B0006D0940E46AE2CE010E946D094DE362E2EA
:1015C000CE010E946D09CE01DF91CF910C948E0A5D
:1015D0002F923F925F926F927F928F929F92AF92E3
:1015E000BF92CF92DF92EF92FF920F931F93CF9310
:1015F000DF9300D000D0CDB7DEB73C01962E542E3D
:10160000302E082DA114B10419F0F501408101C05C
:1016100040E0242EF0E10F9F200C112440E062E016
:10162000C3012B833C830E946D094FE768E0C3012F
:101630000E946D0940E864E1C3010E94FA092B8110
:101640003C81432D62E1C3010E949609422D6AE16B
:10165000C3010E946D09492D62E0C3010E946D091A
:101660008CE0981205C040E86AE1C3010E94FA09C3
:1016700090ED292E97E0392E68E0C3010E94D3092E
:10168000982F952139F480FD62C0E1E02E1A3108CF
:1016900099F75DC06CE0C3010E94D309982E837155
:1016A00009F057C0E114F104F1F0C114D104D9F0EC
:1016B00064E1C3010E94D309482FF6018081841799
:1016C00008F449C04083970162E1C3010E94F40914
:1016D00068E1C3010E94D309182F1770A114B10447
:1016E00011F0F501108393FC38C0E114F104B9F155
:1016F000C114D104A1F1888D882389F1F6014081BC
:10170000413019F4143019F420C0423010F487E04D
:1017100027C01111FCCF42509E012F5F3F4FB701F0
:10172000C3010E942D0A81111BC0F6018081E80EC1
:10173000F11CF7013297908189819813E8CF319697
:1017400090818A819813E3CF0AC08FEF09C083E0AC
:1017500007C081E005C084E003C082E001C080E0F2
:101760000F900F900F900F90DF91CF911F910F91DD
:10177000FF90EF90DF90CF90BF90AF909F908F90B1
:101780007F906F905F903F902F9008958F92AF92CF
:10179000BF92CF92DF92EF92FF920F931F93AF927F
:1017A0008C2C570168017901042F9B0140E36CE008
:1017B0000E94E80A0F901F910F91FF90EF90DF9029
:1017C000CF90BF90AF908F9008954F925F926F929D
:1017D0007F928F929F92AF92CF92EF92FF920F9350
:1017E0001F93CF93DF9300D0CDB7DEB73C016A8360
:1017F0002A0149014115510529F1F9018081823001
:1018000008F140E86CE1C3010E94130A87E0898374
:10181000A12CC12CCE0101967C018401920141E0F2
:10182000BE016E5F7F4FC3010E94C60B81110DC0C8
:10183000F4018081823041F481E09981911105C0E9
:1018400080E003C084E001C081E00F900F90DF9141
:10185000CF911F910F91FF90EF90CF90AF909F90FD
:101860008F907F906F905F904F9008959A01AB0199
:1018700066E20C94E50B2F923F924F925F926F922B
:101880007F928F929F92AF92BF92CF92DF92EF9210
:10189000FF920F931F93CF93DF93CDB7DEB72D97B2
:1018A0000FB6F894DEBF0FBECDBF3C012B01342E26
:1018B00020E5241708F409C140E86CE10E94130AEE
:1018C000BB24B39432E0B31691F043E0B416E1F0D8
:1018D00081E0B812FEC083E989833320D1F041E072
:1018E000D2018C91853008F440E0D12C17C085E9F5
:1018F0008983332081F041E0F2018081883008F44F
:1019000040E073E0D72E0AC087E9898366E0D62ECF
:1019100004C0D12C02C053E0D52E40E0532DF8EF87
:10192000DF9E500D112457FD50E0442321F088E83C
:101930008B8373E001C072E091E0852F877009F41A
:1019400090E0852F859585958595890F21F4442311
:1019500011F1585F20C0442311F063E001C064E03E
:10196000861708F4682F80E090E092012D0D311D5C
:10197000E72FE80FA1E0B0E0AC0FBD1FAE0FB11D27
:10198000FD01D901A80FB91F1196AC91A083019652
:10199000861770F3DCCF43E0242E5032FCF0B0E722
:1019A000BA838C819B8189279D8189279E81892784
:1019B0008F839E01285F3F4F47E0BE016F5F7F4FDF
:1019C000C3015D870E942D0A5D858111CDC01B86F4
:1019D0002A86FE0137964F0179E01EC0952F977039
:1019E0009B87252F25952595259582E0820F392FF8
:1019F000F0E18F9F300D11243A8371E0911101C005
:101A000070E0780F88248394912C8C0E9D1E880E94
:101A1000911C87E0821B8A87CB844C2D4295407FA6
:101A20004C0D6AE1C3015D877C870E946D09A12C82
:101A30009E01255F3F4F79018E01065F1F4F940184
:101A40007C85472FBE016F5F7F4FC3010E94C60B8D
:101A50005D858230A1F56CE1C3010E94D3095D85EB
:101A600085FD35C0482F4F7109F440E2842F90E086
:101A7000252F332727FD30952817390754F5542F84
:101A8000019787709927242F2595259525952F5FF8
:101A900031E0811101C030E0230FE1E0F0E0EC0F14
:101AA000FD1FE20FF11DA1E0B0E002C0AA0FBB1FB5
:101AB0008A95E2F7CD019081982B90836ECF8111AA
:101AC00053C0503244F450E26ACF86E04DC082E009
:101AD0004BC085E049C08B81883819F052E044E062
:101AE00002C053E043E080E090E092012D0D311DF3
:101AF000F901E80FF91F652F680FA1E0B0E0AC0F06
:101B0000BD1FA60FB11D6C9161830196841780F3F0
:101B10008A85833031F58B85811123C09E012D5F2D
:101B20003F4F41E0B401C3010E942D0A81111CC046
:101B30009B81F4018181981316C09C818281981346
:101B400012C0808182FF02C0B394BCCED2011B962A
:101B50008C931B978B2D880F8B0D8F5F8C9380E060
:101B600003C081E001C087E02D960FB6F894DEBF78
:101B70000FBECDBFDF91CF911F910F91FF90EF90DE
:101B8000DF90CF90BF90AF909F908F907F906F909D
:101B90005F904F903F902F900895CF93DF9300D0A8
:101BA0001F92CDB7DEB722E02B83AE014D5F5F4FB2
:101BB000BE016F5F7F4F0E94360C882331F091E0A9
:101BC000823009F090E0892F01C081E00F900F90E2
:101BD0000F90DF91CF91089540E0BC010E943B0C33
:101BE00091E0811190E0892F08951F920F920FB616
:101BF0000F9211242F933F938F939F93AF93BF9393
:101C00008091E8039091E903A091EA03B091EB037E
:101C10003091E70323E0230F2D3720F40196A11D17
:101C2000B11D05C026E8230F0296A11DB11D20930A
:101C3000E7038093E8039093E903A093EA03B0934A
:101C4000EB038091EC039091ED03A091EE03B09132
:101C5000EF030196A11DB11D8093EC039093ED035A
:101C6000A093EE03B093EF03BF91AF919F918F913B
:101C70003F912F910F900FBE0F901F9018953FB777
:101C8000F8948091EC039091ED03A091EE03B09154
:101C9000EF0326B5A89B05C02F3F19F00196A11DA3
:101CA000B11D3FBF6627782F892F9A2F620F711DB4
:101CB000811D911D42E0660F771F881F991F4A956D
:101CC000D1F708958F929F92AF92BF92CF92DF92F9
:101CD000EF92FF926B017C010E943F0E4B015C0171
:101CE000C114D104E104F104F1F00E94D2130E9466
:101CF0003F0E681979098A099B09683E734081057E
:101D0000910570F321E0C21AD108E108F10888EECC
:101D1000880E83E0981EA11CB11CC114D104E104FB
:101D2000F10429F7DDCFFF90EF90DF90CF90BF90C7
:101D3000AF909F908F9008958230910538F0880F72
:101D4000991F880F991F05970197F1F708957894C7
:101D500084B5826084BD84B5816084BD85B58260B0
:101D600085BD85B5816085BDEEE6F0E0808181604E
:101D70008083E1E8F0E0108280818260808380814E
:101D800081608083E0E8F0E0808181608083E1EB26
:101D9000F0E0808184608083E0EBF0E0808181600E
:101DA0008083EAE7F0E080818460808380818260C4
:101DB00080838081816080838081806880831092AD
:101DC000C1000895833081F028F4813099F0823089
:101DD000A1F008958730A9F08830B9F08430D1F4AB
:101DE000809180008F7D03C0809180008F778093E9
:101DF0008000089584B58F7702C084B58F7D84BD3F
:101E000008958091B0008F7703C08091B0008F7DDE
:101E10008093B0000895CF93DF9390E0FC01E458E5
:101E2000FF4F2491FC01E057FF4F8491882349F133
:101E300090E0880F991FFC01E854FF4FA591B491E1
:101E400082559F4FFC01C591D4919FB7611108C085
:101E5000F8948C91209582238C93888182230AC0E8
:101E6000623051F4F8948C91322F309583238C9307
:101E70008881822B888304C0F8948C91822B8C9368
:101E80009FBFDF91CF9108950F931F93CF93DF935F
:101E90001F92CDB7DEB7282F30E0F901E859FF4F88
:101EA0008491F901E458FF4F1491F901E057FF4F75
:101EB00004910023C9F0882321F069830E94E20E77
:101EC0006981E02FF0E0EE0FFF1FE255FF4FA59173
:101ED000B4919FB7F8948C91611103C01095812340
:101EE00001C0812B8C939FBF0F90DF91CF911F91E9
:101EF0000F910895CF93DF93282F30E0F901E8592F
:101F0000FF4F8491F901E458FF4FD491F901E05754
:101F1000FF4FC491CC2391F081110E94E20EEC2F6F
:101F2000F0E0EE0FFF1FEC55FF4FA591B4912C91FF
:101F30002D2381E090E021F480E002C080E090E079
:101F4000DF91CF910895FC01818D228D90E0805C1E
:101F50009F4F821B91098F7399270895FC01918DE2
:101F6000828D981731F0828DE80FF11D858D90E0FC
:101F700008958FEF9FEF0895FC01918D828D981742
:101F800061F0828DDF01A80FB11D5D968C91928D5D
:101F90009F5F9F73928F90E008958FEF9FEF08955A
:101FA00080E491E1892B49F080E090E0892B29F0D1
:101FB0000E94401181110C9400000895FC01848D51
:101FC000DF01A80FB11DA35ABF4F2C91848D90E063
:101FD00001968F739927848FA689B7892C93A0893E
:101FE000B1898C9180648C93938D848D981306C0F5
:101FF0000288F389E02D80818F7D80830895CF93BF
:10200000DF93EC01888D8823C9F0EA89FB89808100
:1020100085FD05C0A889B9898C9186FD0FC00FB6D2
:1020200007FCF5CF808185FFF2CFA889B9898C9113
:1020300085FFEDCFCE010E94DE0FE7CFDF91CF917C
:102040000895CF92DF92FF920F931F93CF93DF9368
:102050001F92CDB7DEB76C0181E0D60158968C9304
:1020600058975B969C915B975C968C915C979813C4
:1020700007C05096ED91FC915197808185FD2EC04F
:10208000F601038D10E00F5F1F4F0F731127F02E25
:10209000F601848DF81211C00FB607FCF9CFD601F6
:1020A0005096ED91FC915197808185FFF1CFC6014B
:1020B00069830E94DE0F6981EBCF838DE80FF11DEC
:1020C000E35AFF4F6083D6015B960C935B97529661
:1020D000ED91FC915397808180620CC0D601569699
:1020E000ED91FC91579760835096ED91FC9151973B
:1020F00080818064808381E090E00F90DF91CF91B8
:102100001F910F91FF90DF90CF900895BF92CF92D3
:10211000DF92EF92FF92CF93DF93EC016A017B0194
:10212000B22EE889F98982E08083411581EE580753
:1021300061057105A1F060E079E08DE390E0A70111
:1021400096010E94EF13215031094109510956951A
:10215000479537952795211580E1380798F0E8894C
:10216000F989108260E874E88EE190E0A701960199
:102170000E94EF13215031094109510956954795A5
:1021800037952795EC85FD853083EE85FF85208387
:10219000188EEC89FD89B082EA89FB898081806193
:1021A0008083EA89FB89808188608083EA89FB8952
:1021B000808180688083EA89FB8980818F7D80832C
:1021C000DF91CF91FF90EF90DF90CF90BF90089577
:1021D0001F920F920FB60F9211242F938F939F93FC
:1021E000EF93FF93E0910004F09101048081E0916E
:1021F0000604F091070482FD12C0908180910904C9
:102200008F5F8F7320910A04821751F0E0910904C7
:10221000F0E0E051FC4F958F8093090401C080816C
:10222000FF91EF919F918F912F910F900FBE0F9083
:102230001F9018951F920F920FB60F9211242F9393
:102240003F934F935F936F937F938F939F93AF933E
:10225000BF93EF93FF9380EF93E00E94DE0FFF9117
:10226000EF91BF91AF919F918F917F916F915F910E
:102270004F913F912F910F900FBE0F901F90189587
:1022800080EF93E00E94A30F21E0892B09F420E066
:10229000822F08951092F3031092F20388EE93E0D8
:1022A000A0E0B0E08093F4039093F503A093F603CD
:1022B000B093F70381E693E09093F1038093F003EA
:1022C00085EC90E09093FD038093FC0384EC90E018
:1022D0009093FF038093FE0380EC90E090930104C1
:1022E0008093000481EC90E09093030480930204B7
:1022F00082EC90E0909305048093040486EC90E0D7
:1023000090930704809306041092090410920A0423
:1023100010920B0410920C04089508950E94A70EC9
:102320000E948D110E949A00C0EDDFE00E94A5017D
:102330002097E1F30E94D00FF9CFCF92DF92EF9276
:10234000FF920F931F93CF93DF937C016A01EB0100
:1023500000E010E00C151D0571F06991D701ED91B9
:10236000FC910190F081E02DC7010995892B19F0AE
:102370000F5F1F4FEFCFC801DF91CF911F910F91DA
:10238000FF90EF90DF90CF9008956115710581F077
:10239000DB010D900020E9F7AD0141505109461BCA
:1023A000570BDC01ED91FC910280F381E02D099443
:1023B00080E090E00895DC01ED91FC91DB01149642
:1023C0004D915C9115976D917C910280F381E02D88
:1023D00009940C94C5116DE673E00C94C5110F932C
:1023E0001F93CF93DF93EC010E94DB118C01CE0190
:1023F0000E94EB11800F911FDF91CF911F910F91E0
:1024000008954F925F926F927F92AF92BF92CF9258
:10241000DF92EF92FF920F931F93CF93DF93CDB78D
:10242000DEB729013A01621B730B840B950B2989D6
:102430003A894B895C892A193B094C095D09298B2A
:102440003A8B4B8B5C8B9B01AC0169897A898B89B8
:102450009C890E94D313E418F50806091709A801FE
:1024600097010E9411142A0D3B1D4C1D5D1DCA01D0
:10247000B901DF91CF911F910F91FF90EF90DF9005
:10248000CF90BF90AF907F906F905F904F900895E6
:10249000FC01808191810C94E814CF93DF93EC01CF
:1024A00088819981009711F00E94E814198218829E
:1024B0001D821C821B821A82DF91CF9108950F9397
:1024C0001F93CF93DF93EC018B016F5F7F4F888168
:1024D00099810E947715009731F0998388831B8337
:1024E0000A8381E001C080E0DF91CF911F910F91BD
:1024F0000895CF93DF93EC0188819981892B29F08E
:102500008A819B818617970760F4CE010E945F1233
:10251000882341F08C819D81892B19F4E881F98110
:10252000108281E0DF91CF910895EF92FF920F9397
:102530001F93CF93DF93EC017B018A01BA010E94C4
:102540007912811104C0CE010E944D1207C01D8373
:102550000C83B701888199810E945316CE01DF91C7
:10256000CF911F910F91FF90EF900895FC01118280
:10257000108213821282158214826115710559F03E
:10258000FB0101900020E9F7AF0141505109461BC2
:10259000570B0C9495120895CF93DF93EC01FB0138
:1025A0008617970761F0608171816115710529F0C7
:1025B000448155810E94951202C00E944D12CE01A5
:1025C000DF91CF910895FC01118210821382128253
:1025D000158214820C94CC12CF93DF93EC01611519
:1025E000710561F0FB0101900020E9F7AF01415056
:1025F0005109461B570B0E94951202C00E944D12B2
:10260000CE01DF91CF9108950F931F93CF93DF9366
:10261000CDB7DEB729970FB6F894DEBF0FBECDBF9A
:102620008C01862FF801118210821382128215828A
:10263000148250E0BE016F5F7F4F90E00E945A16F7
:10264000BE016F5F7F4FC8010E94EC1229960FB642
:10265000F894DEBF0FBECDBFDF91CF911F910F91D8
:102660000895EF92FF920F931F93CF93DF93EC01A6
:102670007B010C811D816115710511F480E016C08C
:102680004115510591F0040F151FB8010E947912F0
:102690008823A1F3288139818C819D81B701820F24
:1026A000931F0E9453161D830C8381E0DF91CF910D
:1026B0001F910F91FF90EF900895CF93DF93EC015E
:1026C000FB0144815581608171810E943113811128
:1026D00003C0CE010E944D12CE01DF91CF9108952B
:1026E000CF93DF93DC01ED91FC91EB01A881B981DF
:1026F000309711F01097C9F4109759F0EB012C8125
:102700003D81232B31F08C9190E091958195910939
:1027100014C0309781F0DC0114968D919C9115972F
:10272000892B49F0808190E008C0BD01CF01DF9185
:10273000CF910C944A1680E090E0DF91CF910895FC
:10274000FC0144815581FB012481358142175307E7
:1027500041F40E94701321E0892B09F020E0822FC0
:10276000089580E00895FC0124813581232B31F404
:1027700021E061157105A1F0FB0108C0FC01808119
:1027800091816115710531F421E0FC01808188237C
:1027900039F005C00E944A1621E0892B09F020E09B
:1027A000822F08950895DB018F939F930E94361422
:1027B000BF91AF91A29F800D911DA39F900DB29FDD
:1027C000900D11240895991B79E004C0991F961764
:1027D00008F0961B881F7A95C9F780950895A1E2A5
:1027E0001A2EAA1BBB1BFD010DC0AA1FBB1FEE1F8B
:1027F000FF1FA217B307E407F50720F0A21BB30BD6
:10280000E40BF50B661F771F881F991F1A9469F751
:1028100060957095809590959B01AC01BD01CF01AD
:102820000895052E97FB1EF400940E94281457FD6E
:1028300007D00E94EF1307FC03D04EF40C94281429
:1028400050954095309521953F4F4F4F5F4F0895DC
:1028500090958095709561957F4F8F4F9F4F08950C
:10286000EE0FFF1F0590F491E02D09940E94411492
:10287000A59F900DB49F900DA49F800D911D1124D4
:102880000895A29FB001B39FC001A39F700D811D49
:102890001124911DB29F700D811D1124911D089569
:1028A000CF93DF938230910510F482E090E0E091C5
:1028B0008F04F091900420E030E0A0E0B0E0309789
:1028C00039F14081518148175907B8F04817590725
:1028D00071F482819381109729F013969C938E93C3
:1028E00012972CC09093900480938F0427C02115D9
:1028F000310531F04217530718F0A901DB0101C07F
:10290000EF019A01BD01DF010280F381E02DD7CFF5
:1029100021153105F9F0281B390B2430310580F4DD
:102920008A819B816115710521F0FB01938382836C
:1029300004C09093900480938F04FE01329644C0AB
:10294000FE01E20FF31F81939193225031093983E5
:1029500028833AC020918D0430918E04232B41F4BA
:10296000209102013091030130938E0420938D0455
:1029700020910001309101012115310541F42DB75D
:102980003EB74091040150910501241B350BE091A5
:102990008D04F0918E04E217F307A0F42E1B3F0B79
:1029A0002817390778F0AC014E5F5F4F24173507C1
:1029B00048F04E0F5F1F50938E0440938D04819317
:1029C000919302C0E0E0F0E0CF01DF91CF91089554
:1029D000CF93DF93009709F487C0FC0132971382ED
:1029E0001282C0918F04D0919004209781F42081AD
:1029F0003181280F391F80918D0490918E048217A8
:102A0000930779F5F0938E04E0938D046DC0DE0199
:102A100020E030E0AE17BF0750F412964D915C9164
:102A200013979D014115510509F1DA01F3CFB383E5
:102A3000A28340815181840F951F8A179B0771F4EF
:102A40008D919C911197840F951F0296918380839D
:102A500012968D919C911397938382832115310552
:102A600029F4F0939004E0938F043EC0D9011396AB
:102A7000FC93EE9312974D915D91A40FB51FEA1749
:102A8000FB0779F480819181840F951F0296D9010B
:102A900011969C938E938281938113969C938E932F
:102AA0001297E0E0F0E08A819B81009719F0FE0127
:102AB000EC01F9CFCE01029628813981820F931F54
:102AC00020918D0430918E042817390769F43097CE
:102AD00029F41092900410928F0402C01382128283
:102AE000D0938E04C0938D04DF91CF910895A0E020
:102AF000B0E0EDE7F5E10C949316EC01CB012097E3
:102B000019F40E945014B8C0FE01E60FF71F9E0191
:102B100022503109E217F30708F4ACC0D9010D9136
:102B20001C91119706171707B8F00530110508F426
:102B30009FC0A801445051094617570708F498C090
:102B400002501109061B170B019311936D937C938F
:102B5000CF010E94E8148CC05B01A01AB10A4E019B
:102B6000800E911EA0918F04B0919004612C712C65
:102B700060E070E0109709F449C0A815B905C9F5DF
:102B8000ED90FC901197670142E0C40ED11CCA146D
:102B9000DB0478F147018A189B08640142E0C40E07
:102BA000D11C1296BC9012971396AC91B5E0CB163F
:102BB000D10440F0B282A38391828082D9018D93A7
:102BC0009C9309C00E5F1F4F0E0D1F1DF90111834D
:102BD0000083EB2DFA2F6115710531F0DB0113969F
:102BE000FC93EE93129744C0F0939004E0938F040B
:102BF0003FC06D917C9111976616770608F43B01F2
:102C0000BD0112960D90BC91A02DB4CF60918D04A2
:102C100070918E0468157905E9F468167906D0F488
:102C200040910001509101014115510541F44DB70A
:102C30005EB76091040170910501461B570BE417C4
:102C4000F507C0F4F0938E04E0938D04F9019183AD
:102C500080830EC00E9450147C01009759F0A80197
:102C6000BE010E944116CE010E94E814C70104C0B3
:102C7000CE0102C080E090E0CDB7DEB7EEE00C946C
:102C8000AF16FB01DC0102C001900D924150504093
:102C9000D8F70895FB01DC018D9101908019011096
:102CA000D9F3990B0895FB01DC0101900D920020EE
:102CB000E1F708954532510520F4423010F00C94AC
:102CC0006516FB011082CB010895BB27FB01552738
:102CD000AA27880F991FAA1FA41710F0A41B839579
:102CE0005051B9F7A05DAA3308F0A95DA1930097F0
:102CF00079F7B111B1931192CB010C947F16DC01DD
:102D0000FC01672F71917723E1F7329704C07C9122
:102D10006D9370836291AE17BF07C8F308952F9229
:102D20003F924F925F926F927F928F929F92AF925B
:102D3000BF92CF92DF92EF92FF920F931F93CF93A8
:102D4000DF93CDB7DEB7CA1BDB0B0FB6F894DEBF3F
:102D50000FBECDBF09942A88398848885F846E8465
:102D60007D848C849B84AA84B984C884DF80EE80AF
:102D7000FD800C811B81AA81B981CE0FD11D0FB6B8
:102D8000F894DEBF0FBECDBFED01089510E0C6EC94
:102D9000D0E004C0FE010E9432142296C83CD10744
:062DA000C9F7F894FFCF13
:102DA6000000910480000100000008000F001000E0
:102DB60048656C6C6F2121004F7665727269646597
:102DC60000446F6F72204F70656E005363616E2012
:102DD600436172640030353339363062360065350A
:102DE6003366363862360064353064353964360009
:102DF600343363356439386200613366346364386A
:102E06006200643330666236386200633566303697
:102E16003162360062336137626438620066356358
:102E2600653635623600613539613636623600619F
:102E360033343463623862003534373534343330F2
:102E46000036336135656238620064333930633782
:102E5600386200653565373565623600383338388F
:102E66006331386200393330366362386200333595
:102E76006137356562360063333239633138620053
:102E86003633363363633862003833396263363833
:102E9600620032616561313431300037653338396B
:102EA60033383500353536383633623600613538D5
:102EB6003338306235003234626532646339003942
:102EC600356130353164360044616E69736820536C
:102ED600616A6A6164004D6F6873696E2049667441
:102EE600696B686172004D2E4D61686164005368BC
:102EF6006568727961720041697A617A20416E7300
:102F0600617269005361696D2D756C2D486173732B
:102F1600616E005361616420456A617A004D2E42FC
:102F2600696E20416D69720048616D697320486160
:102F360069646572004D732E204661697161004DAA
:102F4600756A74616261005573616D6120526168D2
:102F560065656C00526F68616E204C61746966002D
:102F660048617373616E204D61686164004D2E5730
:102F7600616C65656420416E776172004D732E2029
:102F860046617265656861005368616865657220AF
:102F960053616A696400416264756C6C61682049BA
:102FA6007266616E00566963652050726573696466
:102FB600656E740042696C616C20417A68617200CA
:102FC60030303030300048616D7A61204D75726165
:102FD60064004D2E417474610048616D7A61204130
:102FE600686D6564004962726168696D204D616E45
:102FF600736F6F720000000000C8089D110000008A
:103006000021109D11A30FBC0FAE0FFF0F0D0A007C
:0E3016006E616E00696E66006F7666002E00B9
:00000001FF
