:100000000C9463000C948B000C948B000C948B006C
:100010000C948B000C948B000C948B000C948B0034
:100020000C948B000C948B000C948B000C947E042D
:100030000C948B000C948B000C948B000C948B0014
:100040000C9498030C948B000C94D9090C94B3096C
:100050000C948B000C948B000C948B000C948B00F4
:100060000C948B000C948B000000000025002800ED
:100070002B000000000023002600290000000008DB
:10008000000201000003040700000000000000005F
:1000900000000000240027002A00010204081020AC
:1000A000408001020408102001020408102004040A
:1000B0000404040404040202020202020303030310
:1000C0000303220E420C11241FBECFEFD8E0DEBF87
:1000D000CDBF13E0A0E0B1E0E2E8F4E202C0059099
:1000E0000D92A630B107D9F725E0A6E0B3E001C034
:1000F0001D92A130B207E1F710E0C2E6D0E004C0E3
:100100002197FE010E942210C136D107C9F70E9433
:10011000630C0C9434120C940000833081F028F4AA
:10012000813099F08230A1F008958730A9F08830AD
:10013000B9F08430D1F4809180008F7D03C080912C
:1001400080008F7780938000089584B58F7702C0F8
:1001500084B58F7D84BD08958091B0008F7703C0F2
:100160008091B0008F7D8093B00008953FB7F894E0
:1001700080911D0390911E03A0911F03B091200355
:1001800026B5A89B05C02F3F19F00196A11DB11DF2
:100190003FBFBA2FA92F982F8827820F911DA11D2D
:1001A000B11DBC01CD0142E0660F771F881F991F6A
:1001B0004A95D1F70895089580E090E008953F9220
:1001C0004F925F926F927F928F929F92AF92BF9267
:1001D000CF92DF92EF92FF920F931F93CF93DF9313
:1001E000CDB7DEB72C970FB6F894DEBF0FBECDBFEC
:1001F00082E08B8786E28C8760E88CE10E94A70B07
:1002000087E08A87E12C8E01065F1F4F9E01255FE4
:100210003F4FAE014F5F5F4F61E0CE010C960E94F1
:100220002408811109C08B85823029F481E09A85E8
:10023000911102C007C081E0CC24C394823009F040
:1002400041C042C0CC24C3943FC0811108C130E2F8
:10025000D31609F4ACC0B0E2DB2E5A829C818B81AC
:1002600089279D8189279E8189278F83AE01485FD9
:100270005F4F67E0CE0101960E94040C8111EFC030
:100280001B864A86CE0107964C01A9E03A2EEB84E4
:100290006E2D6295607F6E0D8AE10E94550B8E0176
:1002A000055F1F4F9E01265F3F4FA401632DCE01C6
:1002B00001960E942408823041F68CE10E94760B60
:1002C00085FF49C0C12C2AC180E090E020E030E0E9
:1002D0008330910548F4F901E65FFC4F11821082EA
:1002E00001962E5F3F4FF4CF60E88CE10E94A70B90
:1002F000AA24A394B12C83E98983FF24F394712C5D
:1003000027E0622ED12C10E7512E03E0402E20E290
:10031000D21609F4A2CF9D2D97709B872D2D259580
:100320002595259582E0820F392FE0E18E9F300DD3
:1003300011243A8331E0911101C030E0332E380EA0
:1003400088248394912C8C0E9D1E880E911C862DE2
:10035000821B8A879CCF8F7109F480E2282F30E0BE
:100360004D2DDD0C550B421753070CF0ABCFD82E9B
:10037000C90101978770992725952595259531E025
:10038000320F21E0009709F420E0230FE1E0F0E0D4
:10039000EC0FFD1FE20FF11D950102C0220F331F6C
:1003A0008A95E2F7C9019081892B8083B0CF8B8138
:1003B000883819F032E024E002C033E023E080E026
:1003C00090E0672D70E0FC01E60FF71FE151FB4F55
:1003D000432F480FA1E0B0E0AC0FBD1FA40FB11D2B
:1003E0004C9141830196821770F38A85833009F01E
:1003F00069CF8B85811166CFAE014D5F5F4F61E0A4
:10040000C4010E94040C81112AC09B81F4018181E6
:10041000981358CF9C818281981354CF808182FF9A
:1004200015C0F394F2E0FF1205C085E9898393E0DB
:10043000792E68CF23E0F21205C087E9898386E030
:10044000782E60CF31E0F3123DCF55CF8093FA0480
:100450008F2D880FF80EF394F092EF0402C08111F3
:1004600031CF8091EF0490E0A4EFB4E0EAE0F3E054
:1004700020E030E04E9150E0419351932F5F3F4F89
:1004800082179307BCF720910C0330910D038091E4
:100490000A0390910B03AC01990F660B770BC9010E
:1004A000330FAA0BBB0BBA2FA92F982F8827840FC5
:1004B000951FA61FB71F40910E0350910F03052EE5
:1004C000000C660B770BBA0155274427840F951F44
:1004D000A61FB71F4091100350911103052E000C69
:1004E000660B770B742F662755274427840F951FBB
:1004F000A61FB71F40E050E060E071E040930603A4
:1005000050930703609308037093090380931303C8
:1005100090931403A0931503B09316038C2D2C967F
:100520000FB6F894DEBF0FBECDBFDF91CF911F9104
:100530000F91FF90EF90DF90CF90BF90AF909F9082
:100540008F907F906F905F904F903F900895CF93E2
:10055000DF93282F30E0F901E458FF4F8491F9012F
:10056000E656FF4FD491F901E255FF4FC491CC23D9
:1005700091F081110E948D00EC2FF0E0EE0FFF1F33
:10058000EE58FF4FA591B491EC91ED2381E090E0FE
:1005900021F480E002C080E090E0DF91CF910895E7
:1005A0001F93CF93DF93282F30E0F901E458FF4FDA
:1005B0008491F901E656FF4FD491F901E255FF4FBE
:1005C000C491CC23C9F0162F81110E948D00EC2F0D
:1005D000F0E0EE0FFF1FE859FF4FA591B4918FB7E0
:1005E000F894111105C09C91ED2FE095E92302C00C
:1005F000EC91ED2BEC938FBFDF91CF911F9108957C
:10060000CF93DF93EC0160E08E810E94D00261E025
:100610008E810E94D00260E08E810E94D0028BE821
:1006200091E00197F1F7DF91CF910895CF93DF9398
:1006300090E0FC01E656FF4F2491FC01E255FF4F8C
:100640008491882361F190E0880F991FFC01E057A5
:10065000FF4FC591D491FC01E859FF4FA591B4918A
:10066000611109C09FB7F8948881209582238883FF
:10067000EC912E230BC0623061F49FB7F89438815F
:10068000822F809583238883EC912E2B2C939FBF00
:1006900006C08FB7F894E8812E2B28838FBFDF9197
:1006A000CF9108958F929F92AF92BF92CF92DF9297
:1006B000EF92FF926B017C010E94B6004B015C013E
:1006C000C114D104E104F104F1F00E94B600DC0190
:1006D000CB0188199909AA09BB09883E9340A10555
:1006E000B10570F321E0C21AD108E108F10888EEE3
:1006F000880E83E0981EA11CB11CC114D104E10432
:10070000F10419F7DDCFFF90EF90DF90CF90BF900D
:10071000AF909F908F9008952FB7F8946091190330
:1007200070911A0380911B0390911C032FBF0895B1
:100730001F920F920FB60F9211242F933F938F9316
:100740009F93AF93BF938091190390911A03A09147
:100750001B03B0911C033091180323E0230F2D37A6
:1007600020F40196A11DB11D05C026E8230F0296B5
:10077000A11DB11D209318038093190390931A03B0
:10078000A0931B03B0931C0380911D0390911E0343
:10079000A0911F03B09120030196A11DB11D80936C
:1007A0001D0390931E03A0931F03B0932003BF91DA
:1007B000AF919F918F913F912F910F900FBE0F900E
:1007C0001F90189508958EBD00000DB407FEFDCF53
:1007D0008EB508958CBD9DBD0895CF92DF92EF92A6
:1007E000FF920F931F93CF93DF937C016C0187E0FF
:1007F000C80ED11CC0E0D0E0062F10E0B8010C2ECE
:1008000002C0759567950A94E2F76170F6018191CF
:100810006F010E94D0022196C430D10579F7C7013B
:10082000DF91CF911F910F91FF90EF90DF90CF90CC
:100830000C940003CF92DF92EF92FF920F931F93DD
:10084000CF93DF93EC01F62E642F8C810E94D002AF
:100850008D818F3F19F060E00E94D0028F850F2DAF
:1008600010E084FF25C06E0187E0C80ED11CE12C8A
:10087000F12CB8010E2C02C0759567950A94E2F729
:100880006170F60181916F010E94D002FFEFEF1AB3
:10089000FF0A88E0E816F10461F7CE01DF91CF91FD
:1008A0001F910F91FF90EF90DF90CF900C94000379
:1008B000B80184E0759567958A95E1F7CE010E94AD
:1008C000ED036F2DCE01DF91CF911F910F91FF901E
:1008D000EF90DF90CF900C94ED0341E00E941A045A
:1008E00081E090E0089540E00C941A0461E00E94D9
:1008F00073048BE39FE10197F1F708951F920F9224
:100900000FB60F9211242F933F934F935F936F93E2
:100910007F938F939F93AF93BF93EF93FF938091B8
:10092000170387FF05C010928500109284001BC03A
:1009300020911703022E000C330B80912B0490E0C2
:100940002817390784F480911703082E000C990B9F
:10095000FC01EE0FFF1F8E0F9F1FFC01E95FFB4F95
:10096000808186FD15C0809117038F5F80931703E8
:1009700020911703022E000C330B80912B0490E082
:1009800028173907C4F4809117038C3064F113C021
:1009900080911703082E000C990BFC01EE0FFF1F2E
:1009A0008E0F9F1FFC01E95FFB4F808160E08F731A
:1009B0000E94D002D8CF8091840090918500049647
:1009C00080349C4918F480E49CE905C0809184003F
:1009D00090918500049690938900809388008FEF12
:1009E000809317033BC02091840030918500809153
:1009F0001703082E000C990BFC01EE0FFF1F8E0F42
:100A00009F1FFC01E95FFB4F81819281820F931F41
:100A1000909389008093880080911703082E000C22
:100A2000990BFC01EE0FFF1F8E0F9F1FFC01E95F6A
:100A3000FB4F808186FF12C080911703082E000CA7
:100A4000990BFC01EE0FFF1F8E0F9F1FFC01E95F4A
:100A5000FB4F808161E08F730E94D002FF91EF9184
:100A6000BF91AF919F918F917F916F915F914F91C6
:100A70003F912F910F900FBE0F901F90189561E03E
:100A800080E10E94D00264EF71E080E090E00E947B
:100A9000520360E080E10E94D00280EA90E00C9472
:100AA000D10A82E390E00E94D10A61E080E10E94D5
:100AB000D00264EF71E080E090E00E94520360E0B9
:100AC00080E10C94D0026115710579F0FB01019071
:100AD0000020E9F73197AF01461B570BDC01ED9180
:100AE000FC910280F381E02D099480E090E008956C
:100AF0000F931F9340E050E069EE71E08CE294E0C8
:100B00000E94F4084091130350911403609115035F
:100B100070911603EAE2F1E080E090E0019111911A
:100B200021913191401751076207730749F426E07C
:100B3000289FB001299F700D112468597B4F19C05F
:100B400001968231910551F7E6E0F1E080E090E016
:100B5000019111912191319140175107620773075B
:100B600081F426E0289FB001299F700D11246E5C4E
:100B70007B4F8CE294E00E94340981E08093120361
:100B800013C001968930910519F760E971E082E29E
:100B900093E00E94630567EE71E082E293E00E94B9
:100BA00063051092120380E01F910F910895CF9278
:100BB000DF92EF92FF921F93CF93DF9300D000D08C
:100BC00000D0CDB7DEB711E040E050E069EE71E053
:100BD0008CE294E00E94F40887ED94E00E94760491
:100BE0006091E7046E7F6093E704686087ED94E0AE
:100BF0000E9473046091E8046E7F6093E80464606F
:100C000087ED94E00E94730461EA71E087ED94E05F
:100C10000E946305109212038FE00E94A702892BA5
:100C2000C1F488E00E94A702019749F445E050E032
:100C300061EB71E08CE294E00E94F40834C00E9401
:100C4000DF00882309F498C00E94780581112BC029
:100C500093C082E293E00E94F6078FE00E94A70211
:100C6000019709F0DBC00E94510560EC71E0CE01F4
:100C700001960E94550987ED94E00E9476044D810B
:100C80005E8169817A8187ED94E00E941C078981E9
:100C90009A810E94BD108FE00E94A7020197D9F3AC
:100CA0000E943F05BBC01093120380911203813054
:100CB00009F0B2CF1A8219821C821B821E821D8209
:100CC0006CE274E0CE0101960E94340987ED94E055
:100CD0000E94760467EB71E087ED94E00E94630563
:100CE000E091EA04E23010F4E15001C0E1E0F0E00C
:100CF000E952FB4F6489606887ED94E00E947304B9
:100D00004D815E8169817A8187ED94E00E941C07A4
:100D100089819A810E94BD100E9451050E948C0316
:100D20006B017C012AE0AB01BC0182E293E00E94EE
:100D30006A0967EE71E082E293E00E9463058FE04A
:100D40000E94A702892B09F067CF0E948C03DC0167
:100D5000CB018C199D09AE09BF0988389341A105C3
:100D6000B10520F00E943F050E94D7050E948C0328
:100D7000AB01BC012AE0D9CF0E94DF00882309F42F
:100D800094CF0E947805811190CF87ED94E00E9466
:100D900076046BEC71E087ED94E00E94630561E0FE
:100DA00080E10E94D00269E170E080E090E00E9462
:100DB000520360E080E10E94D00269E170E080E0CF
:100DC00090E00E94520361E080E10E94D00269E15C
:100DD00070E080E090E00E94520360E080E10E94B9
:100DE000D00269E170E080E090E00E94520361E08F
:100DF00080E10E94D00269E170E080E090E00E9412
:100E0000520360E080E10E94D00260EA7FE080E06F
:100E100090E00E94520310921203D6CE26960FB68F
:100E2000F894DEBF0FBECDBFDF91CF911F91FF9031
:100E3000EF90DF90CF900895CF92DF92EF92FF92E4
:100E40000F931F93CF93DF936C017A018B01C0E066
:100E5000D0E0CE15DF0589F0D8016D918D01D60166
:100E6000ED91FC910190F081E02DC6010995892B4F
:100E700011F47E0102C02196ECCFC701DF91CF9122
:100E80001F910F91FF90EF90DF90CF900895FC019C
:100E9000538D448D252F30E0842F90E0821B930BDF
:100EA000541710F0CF96089501970895FC01918D85
:100EB000828D981761F0828DDF01A80FB11D5D96BC
:100EC0008C91928D9F5F9F73928F90E008958FEF2A
:100ED0009FEF0895FC01918D828D981731F0828DDE
:100EE000E80FF11D858D90E008958FEF9FEF089535
:100EF000FC01918D228D892F90E0805C9F4F821B99
:100F000091098F739927089582E293E00E947807F0
:100F100021E0892B09F420E0822F0895FC01848DC3
:100F2000DF01A80FB11DA35ABF4F2C91848D90E013
:100F300001968F739927848FA689B7892C93A089EE
:100F4000B1898C9180648C93938D848D981306C0A5
:100F50000288F389E02D80818F7D80830895EF9250
:100F6000FF920F931F93CF93DF93EC0181E0888F63
:100F70009B8D8C8D981305C0E889F989808185FD4A
:100F800024C0F62E0B8D10E00F5F1F4F0F7311273B
:100F9000E02E8C8DE8120CC00FB607FCFACFE88962
:100FA000F989808185FFF5CFCE010E948E07F1CFB0
:100FB0008B8DFE01E80FF11DE35AFF4FF0820B8F7E
:100FC000EA89FB898081806207C0EE89FF8960839E
:100FD000E889F98980818064808381E090E0DF91F5
:100FE000CF911F910F91FF90EF900895CF93DF93D2
:100FF000EC01888D8823C9F0EA89FB89808185FD11
:1010000005C0A889B9898C9186FD0FC00FB607FC71
:10101000F5CF808185FFF2CFA889B9898C9185FFB2
:10102000EDCFCE010E948E07E7CFDF91CF910895DB
:1010300080E090E0892B29F00E94840781110C94B4
:10104000000008950E941F127F928F929F92AF928C
:10105000BF92CF92DF92EF92FF920F931F93CF93A5
:10106000DF934C01F62EEA015901680101151105C3
:1010700019F0F801908101C090E0192FF0E1EF9E86
:10108000100D112460E082E00E94550B6FE788E0AC
:101090000E94550B60E884E10E94BB0BB4018F2DC8
:1010A0000E94CE0B612F8AE10E94550B6CE082E01A
:1010B0000E94550B60E88AE10E94BB0B00ED17E02F
:1010C00088E00E94760B982F907331F480FD77C0F2
:1010D00001501109A9F773C08CE00E94760BF82E1D
:1010E000837109F06EC0209709F465C0A114B104A2
:1010F00009F461C084E10E94760B182FF50180810C
:10110000811708F460C01083112309F44BC083E5F4
:1011100090E00E94EA0360E08091FB040E94D0020C
:101120000FEF010F82E90E94E3037C2E8C2E9D2E8F
:10113000AA24A394B12C882D8719801730F581112A
:101140001BC0EE20C9F09E2D10E0983048F49501A8
:10115000092E01C0220F0A94EAF7122B9F5FF5CFE8
:1011600082E90E94E303212F209598819223812315
:10117000192F182B188305C082E90E94E303F4019C
:101180008083FFEF8F1A9F0AD6CFC00FD11D80E05A
:101190000E94E303888361E08091FB040E94D002F7
:1011A0000E94E20388E10E94760B8770C114D1048B
:1011B00011F0F6018083F3FC08C080E007C083E0F3
:1011C00005C081E003C084E001C082E0DF91CF91DF
:1011D0001F910F91FF90EF90DF90CF90BF90AF9055
:1011E0009F908F907F900895EF92FF920F931F939F
:1011F000CF93DF93EC017B018A018881998100976D
:1012000029F02A813B8124173507F8F4B8016F5F74
:101210007F4F0E945511009759F0998388831B8353
:101220000A832C813D81232B81F4FC0110820DC0A7
:1012300088819981009711F00E94BD10198218824F
:101240001D821C821B821A8207C01D830C83B7017A
:10125000888199810E942D12CE01DF91CF911F913B
:101260000F91FF90EF900895CF93DF93EC01FB0176
:1012700086179707B1F0608171816115710529F0BA
:10128000448155810E94F4080CC08881998100979F
:1012900011F00E94BD10198218821D821C821B82CF
:1012A0001A82CE01DF91CF910895FC011182108244
:1012B00013821282158214826115710551F0FB01AF
:1012C00001900020E9F73197AF01461B570B0C94B2
:1012D000F40808954F925F926F927F92EF92FF927F
:1012E0000F931F93CF93DF93CDB7DEB7A1970FB6C0
:1012F000F894DEBF0FBECDBF7C01FA01CB0119A26D
:10130000223008F42AE08E010F5D1F4F422E512C2F
:10131000612C712CBF01A30192010E947C0FF90185
:10132000CA01015011096A3014F4605D01C0695CA2
:10133000D8016C93232B242B252B61F7B801C7010F
:101340000E946305A1960FB6F894DEBF0FBECDBF15
:10135000DF91CF911F910F91FF90EF907F906F9051
:101360005F904F9008951F920F920FB60F92112425
:101370002F933F934F935F936F937F938F939F939D
:10138000AF93BF93EF93FF9382E293E00E948E07A7
:10139000FF91EF91BF91AF919F918F917F916F914D
:1013A0005F914F913F912F910F900FBE0F901F9023
:1013B00018951F920F920FB60F9211242F938F93AF
:1013C0009F93EF93FF93E0913203F0913303808179
:1013D000E0913803F091390382FD12C09081809131
:1013E0003B038F5F8F7320913C03821751F0E09194
:1013F0003B03F0E0EE5DFC4F958F80933B0301C013
:101400008081FF91EF919F918F912F910F900FBE4F
:101410000F901F901895EF92FF920F931F93CF9309
:10142000DF93EC01623018F08F8588608F876B8BBB
:101430001C8A80E48D8B80E18E8B80E58F8B61E050
:101440008C810E9416038D818F3F19F061E00E940C
:10145000160361E08E810E9416037E0187E0E80E8C
:10146000F11C00E010E08F8584FD03C084E090E073
:1014700002C088E090E0081719074CF461E0F7011A
:1014800081917F010E9416030F5F1F4FECCF8BE30A
:101490009DE00197F1F760E08C810E94D00260E04E
:1014A0008E810E94D0028D818F3F19F060E00E94F2
:1014B000D0026F8564FD1DC063E0CE010E94ED0384
:1014C0000BE416E4C8010197F1F763E0CE010E9436
:1014D000ED03C8010197F1F763E0CE010E94ED032F
:1014E00083E592E00197F1F762E0CE010E94ED03FF
:1014F00016C06062CE010E9473048BE496E40197EB
:10150000F1F76F856062CE010E94730483E592E07B
:101510000197F1F76F856062CE010E9473046F85B9
:101520006062CE010E94730484E0888B6CE0CE017F
:101530000E947304CE010E94760482E0898B66E0EB
:10154000CE01DF91CF911F910F91FF90EF900C94FE
:101550007304E2E2F3E0A089B18982E08C93A48570
:10156000B5851C92A685B7858FEC8C93108EA489C7
:10157000B58986E08C93A289B3898C9180618C9324
:10158000A289B3898C9188608C93A289B3898C914C
:1015900080688C930288F389E02D80818F7D808321
:1015A0000895CF92DF92EF92FF92DC01A03282E0A9
:1015B000B8070CF03EC0B7FD06C0A53BB1052CF046
:1015C000A4EBB0E002C0A0E0B0E08091D50428E830
:1015D00030E06901C81AD10887FDD394CC0CDD1C1A
:1015E000CC0CDD1C0D2C000CEE08FF088091D604FD
:1015F00028E532E0281B310987FD3395220F331F80
:10160000220F331FA901330F660B770B9A01AB0131
:101610002C193D094E095F090E94C80F24EB30E0E8
:1016200040E050E00E949E0FC20ED31EE41EF51E45
:10163000D6019091D4049C3098F58091D50448E867
:1016400050E0481B510987FD5395440F551F440F27
:10165000551FA417B5078CF08091D60428E532E019
:10166000281B310987FD3395220F331F220F331FAB
:10167000AD012A173B070CF4A90142505109440F50
:10168000551F2FB7F894892F90E0FC01EE0FFF1F34
:101690008E0F9F1FFC01E95FFB4F528341832FBFD9
:1016A000FF90EF90DF90CF9008950F931F93CF930B
:1016B000DF93082F162F83E590E00E94EA03CFEE18
:1016C000D4E060E08C850E94D002802F8E770E944B
:1016D000E303812F0E94E30361E08C850E94D00226
:1016E000DF91CF911F910F910C94E2030F931F9301
:1016F000CF93C82F83E590E00E94EA030FEE14E039
:1017000060E0F80184850E94D0028C2F8E7780687B
:101710000E94E30380E00E94E303C82F61E0F80128
:1017200084850E94D0020E94E2038C2FCF911F91EA
:101730000F91089588E20E94760B982F9370933052
:1017400029F0682F636088E20C94550B08951F936D
:10175000CF93DF931F92CDB7DEB7182F69830E9416
:10176000760B698160956823812F0F90DF91CF916F
:101770001F910C94550B1F93CF93DF931F92CDB7FE
:10178000DEB7182F69830E94760B6981682B812F41
:101790000F90DF91CF911F910C94550BCF92DF9258
:1017A000FF920F931F93CF93DF931F92CDB7DEB7B6
:1017B000082F162F83E590E079830E94EA0360E00A
:1017C0008091FB040E94D00282E10E94E303F12E8B
:1017D000C12E7981D72E8C2D8F19801730F4F60108
:1017E00081916F010E94E303F6CF61E08091FB04D9
:1017F0000E94D0020F90DF91CF911F910F91FF9027
:10180000DF90CF900C94E203EF92FF920F931F931F
:10181000CF93DF937C01C62F8A0160E082E00E94B3
:10182000550B64E08AE00E94550B60E884E10E9459
:10183000BB0BB7018C2F0E94CE0B63E082E00E94AD
:10184000550BC8E8D3E18AE00E94760B82FD04C004
:101850002197C9F783E00FC060E082E00E94550B3A
:1018600084E40E94760BF801808382E40E94760B68
:10187000F801818380E0DF91CF911F910F91FF905C
:10188000EF900895CF93DF9380912C0490912D04D5
:101890000E94BD10C8E6D4E02697888199810E94F5
:1018A000BD1084E0C233D807B9F7C4EDD4E0269761
:1018B000888199810E94BD1084E0C836D807B9F7A5
:1018C000DF91CF910895789484B5826084BD84B50A
:1018D000816084BD85B5826085BD85B5816085BD2B
:1018E00080916E00816080936E00109281008091E3
:1018F000810082608093810080918100816080936B
:101900008100809180008160809380008091B1008F
:1019100084608093B1008091B00081608093B000BA
:1019200080917A00846080937A0080917A0082604E
:1019300080937A0080917A00816080937A00809110
:101940007A00806880937A001092C100109203049C
:101950001092040410920504109206041092C10320
:101960001092C2031092C3031092C4030E948C030E
:101970006B017C014B015C0188EB880E8BE0981EAB
:10198000A11CB11C0E948C036C157D058E059F0562
:1019900028F086169706A806B906A0F782E293E01B
:1019A00090930204809301040E94A90A0E948C0370
:1019B0006093C1037093C2038093C3039093C403E5
:1019C00068ED71E080910104909102040E9463052A
:1019D0000E948C036B017C014B015C019AE0890E33
:1019E000911CA11CB11C0E948C036C157D058E05F9
:1019F0009F0528F086169706A806B906A0F781E08D
:101A00008093D5030E94A90A6AEE71E082E293E016
:101A10000E94630567EE71E082E293E00E94630535
:101A200062E087ED94E00E940B0A67EF71E087EDBA
:101A300094E00E94630561E080E10E94160360E08B
:101A400088E00E94160360E08FE00E9416038091F8
:101A5000D4048C3008F051C061E08EE00E9416037F
:101A60008091D404E82FF0E09F01220F331FE20F92
:101A7000F31FE95FFB4F9081907C9E6090831092F2
:101A8000D5041092D6046CE00E9416109CE0899F49
:101A9000B001112440E050E09A01260F371FF901F0
:101AA000EE0FFF1F2E0F3F1FF901E95FFB4F9081E3
:101AB00096FD16C04F5F5F4F4C30510569F781119D
:101AC0000FC01092800082E0809381001092850008
:101AD00010928400B19A80916F00826080936F00B1
:101AE000E091D404F0E0CF01880F991FE80FF91FAF
:101AF000E95FFB4F808180648083CFB7F894809149
:101B00002103811127C0E8EBF0E08491E4EAF0E0E2
:101B10009491E82FF0E0EE0FFF1FE057FF4FA591E3
:101B2000B491EC91E92321F461E08AE00E94D002B3
:101B300061E08AE00E9416038CB580618CBD8CB593
:101B400080648CBD61E08DE00E94160361E08BE053
:101B50000E941603809121038F5F80932103CFBFE2
:101B600061E08091FB040E94160361E08091FB0418
:101B70000E94D00261E08091FC040E9416038091D3
:101B8000FC040E94A702892B61F461E08091FC04AF
:101B90000E94D00262E370E080E090E00E94520375
:101BA0000FC06FE082E00E94550B62E370E080E0BE
:101BB00090E00E94520382E00E94760B84FDFBCFEE
:101BC00060E884E50E94550B69EA86E50E94550BA2
:101BD00063E088E50E94550B68EE8AE50E94550B8C
:101BE00060E48AE20E94550B6DE382E20E94550B8D
:101BF0000E949A0B8FE00E94A702892B19F40E9481
:101C00003F0507C08FE00E94A702019711F40E94D0
:101C1000510563E088E20E94A70B8CE40E94760BDA
:101C20008077803741F060E78CE40E94A70B60E783
:101C30008CE40E94BB0B0E949A0B0E94D7050E9465
:101C40001808FBCFCF93109225031092240388EE3F
:101C500093E0A0E0B0E08093260390932703A09345
:101C60002803B093290386E791E0909323038093A0
:101C7000220385EC90E090932F0380932E0384EC55
:101C800090E0909331038093300380EC90E0909348
:101C900033038093320381EC90E09093350380937B
:101CA000340382EC90E0909337038093360386EC04
:101CB00090E0909339038093380310923B03109285
:101CC0003C0310923D0310923E031092C503109204
:101CD000C6031092C7031092C8031092C903109252
:101CE000CA031092CB031092CC031092CD03109232
:101CF000CE031092CF031092D0031092D103109212
:101D0000D2031092D3031092D4038AE08093FB0491
:101D100089E08093FC041092DA041092D90488E8D8
:101D200091E09093D8048093D70482E08093DB0401
:101D3000CFEFC093DC0483E08093DD0484E08093E4
:101D4000DE0485E08093DF0486E08093E00487E092
:101D50008093E1041092E2041092E3041092E404F0
:101D60001092E5041092E60461E087ED94E00E9491
:101D70000B0A80912B048C30A0F491E0980F909383
:101D80002B048093D40490E0FC01EE0FFF1F8E0F14
:101D90009F1FFC01E95FFB4F88EB9BE092838183EF
:101DA00002C0C093D40464E072E088E694E00E942C
:101DB00055096BE072E08EE694E00E94550963E1FC
:101DC00072E084E794E00E9455096BE172E08AE7D3
:101DD00094E00E94550964E272E080E894E00E9479
:101DE000550961E372E086E894E00E9455096DE3CD
:101DF00072E08CE894E00E94550962E472E082E9A6
:101E000094E00E9455096CE472E088E994E00E9435
:101E1000550967E572E08EE994E00E94550964E691
:101E200072E084EA94E00E9455096EE672E08AEA64
:101E300094E00E94550969E772E080EB94E00E940B
:101E4000550961E872E086EB94E00E9455096EE85E
:101E500072E08CEB94E00E9455096AE972E082EC32
:101E600094E00E94550967EA72E088EC94E00E94D1
:101E7000550960EB72E08EEC94E00E9455096BEB23
:101E800072E082E394E00E94550969EC72E088E315
:101E900094E00E94550965ED72E08EE394E00E94A3
:101EA000550965ED72E084E494E00E94550965ED02
:101EB00072E08AE494E00E9455096DED72E080E5DD
:101EC00094E00E94550969EE72E086E594E00E9474
:101ED000550968EF72E08CE594E00E9455096BEBC0
:101EE00072E082E694E00E94550969EE71E08CE2AE
:101EF00094E0CF910C945509A1E21A2EAA1BBB1BAA
:101F0000FD010DC0AA1FBB1FEE1FFF1FA217B307C5
:101F1000E407F50720F0A21BB30BE40BF50B661FDB
:101F2000771F881F991F1A9469F76095709580959F
:101F300090959B01AC01BD01CF010895052E97FB43
:101F40001EF400940E94B50F57FD07D00E947C0F2D
:101F500007FC03D04EF40C94B50F50954095309586
:101F600021953F4F4F4F5F4F089590958095709505
:101F700061957F4F8F4F9F4F08950E940710A59F37
:101F8000900DB49F900DA49F800D911D1124089574
:101F9000B7FF0C94BD0F0E94BD0F821B930B0895D9
:101FA0002F923F924F925F926F927F928F929F9269
:101FB000AF92BF92CF92DF92EF92FF920F931F9357
:101FC000CF93DF93CDB7DEB7CA1BDB0B0FB6F89408
:101FD000DEBF0FBECDBF09942A88398848885F8448
:101FE0006E847D848C849B84AA84B984C884DF80B9
:101FF000EE80FD800C811B81AA81B981CE0FD11D9D
:102000000FB6F894DEBF0FBECDBFED010895A29FBD
:10201000B001B39FC001A39F700D811D1124911DBC
:10202000B29F700D811D1124911D0895991B79E0B7
:1020300004C0991F961708F0961B881F7A95C9F758
:1020400080950895EE0FFF1F0590F491E02D0994FF
:10205000CF93DF938230910510F482E090E0E0911D
:10206000FF04F091000520E030E0C0E0D0E03097C0
:1020700011F14081518148175907C0F0481759079D
:1020800061F482819381209719F09B838A832BC00E
:10209000909300058093FF0426C02115310519F0A7
:1020A0004217530718F49A01BE01DF01EF010280C5
:1020B000F381E02DDCCF2115310509F1281B390B07
:1020C0002430310590F412968D919C9113976115EF
:1020D000710521F0FB019383828304C09093000576
:1020E0008093FF04FD01329644C0FD01E20FF31F0F
:1020F00081939193225031092D933C933AC02091C2
:10210000FD043091FE04232B41F420910201309113
:1021100003013093FE042093FD04209100013091CF
:1021200001012115310541F42DB73EB7409104015D
:1021300050910501241B350BE091FD04F091FE0444
:10214000E217F307A0F42E1B3F0B2817390778F08E
:10215000AC014E5F5F4F2417350748F04E0F5F1FED
:102160005093FE044093FD048193919302C0E0E0FC
:10217000F0E0CF01DF91CF9108950F931F93CF939C
:10218000DF93009709F48CC0FC013297138212820E
:102190000091FF04109100050115110581F42081C3
:1021A0003181820F931F2091FD043091FE04281786
:1021B000390779F5F093FE04E093FD0471C0D8016E
:1021C00040E050E0AE17BF0750F412962D913C91BD
:1021D0001397AD012115310509F1D901F3CF9D0107
:1021E000DA013383228360817181860F971F821702
:1021F000930769F4EC0128813981260F371F2E5F80
:102200003F4F318320838A819B8193838283452B37
:1022100029F4F0930005E093FF0442C01396FC9369
:10222000EE931297ED01499159919E01240F351FAC
:10223000E217F30771F480819181840F951F029654
:1022400011969C938E938281938113969C938E9387
:102250001297E0E0F0E0D80112968D919C911397CF
:10226000009719F0F8018C01F6CF8D919C9198019F
:102270002E5F3F4F820F931F2091FD043091FE048B
:102280002817390769F4309729F410920005109245
:10229000FF0402C0138212821093FE040093FD0417
:1022A000DF91CF911F910F910895A0E0B0E0EBE591
:1022B000F1E10C94D40FEC01009721F4CB010E94C2
:1022C0002810B8C0FC01E60FF71F9C01225031090D
:1022D000E217F30708F4ACC0D9010D911C911197D6
:1022E00006171707B0F00530110508F49FC0C801A4
:1022F00004978617970708F499C002501109061B26
:10230000170B019311936D937C93CF010E94BD1025
:102310008DC05B01A01AB10A4C01800E911EA091E4
:10232000FF04B091000540E050E0E12CF12C109743
:1023300009F44AC0A815B905D1F56D907C901197A4
:10234000630182E0C80ED11CCA14DB0480F1A30132
:102350004A195B096A0182E0C80ED11C1296BC9032
:1023600012971396AC91B5E0CB16D10440F0B2822F
:10237000A38351834083D9016D937C930AC00E5F80
:102380001F4FC301800F911FF90191838083EB2DB3
:10239000FA2FE114F10431F0D7011396FC93EE9378
:1023A000129744C0F0930005E093FF043FC08D9165
:1023B0009C9111974817590708F4AC017D011296BA
:1023C0000D90BC91A02DB3CF8091FD049091FE049F
:1023D00088159905E1F446175707C8F48091000164
:1023E00090910101009741F48DB79EB7409104018F
:1023F00050910501841B950BE817F907C8F4F09379
:10240000FE04E093FD04F901718360830FC0CB01EA
:102410000E9428107C01009759F0A801BE010E947B
:102420002412CE010E94BD10C70104C0CE0102C01B
:1024300080E090E0CDB7DEB7EEE00C94F00F81E0E5
:1024400090E0F8940C943412FB01DC0102C001907E
:102450000D9241505040D8F70895FB01DC010190E6
:102460000D920020E1F7089510E0C2E6D0E004C02C
:10247000FE010E9422102196C336D107C9F7F894B5
:02248000FFCF8C
:102482000000010580008BCB0693B65EA7358BC199
:1024920029C38BD9C5438BCC63638BC69B83101432
:1024A200EA2A8593387E04030201B6603905B668CC
:1024B2003FE5D6590DD58BD9C5438BCDF4A38BB649
:1024C2000F03B661F0C58BBDA7B3B665CEF5B66690
:1024D2009AA58BCB44A3B6636855304475548BEBF5
:1024E200A5638BC790D3B65EE7E58BC188838593DE
:1024F200387E00000000AF071C074707F607780781
:1025020056076A07000000006D041C07DC00DB00B0
:102512004D656D626572206E6F7420466F756E64D4
:10252200005363616E20436172642042656C6F7771
:102532000047756573740057656C636F6D652000A5
:10254200436C6F736520446F6F7200556E617574D2
:10255200686F72697A656400564D4450565F317CEB
:10256200315F564D4450560D0A00496E69746961D7
:102572006C697A696E6700504C656173652077619A
:1025820069742E004D2E41747461004D2E4D6168A8
:102592006164004962726168696D005368656872BE
:1025A2007961720041697A617A20416E7361726960
:1025B2000048616D7A612041686D6564005361690C
:1025C2006D005361616420456A617A004D2E426953
:1025D2006E20416D69720048616D697320486169BE
:1025E200646572004D732E204661697161004D73FE
:1025F2002E20466172656861004D756A7461626180
:10260200005573616D612052616865656C00526F9F
:1026120068616E204C617469660048617373616E13
:10262200204D61686164004D2E57616C65656400E0
:10263200536972204D6F6873696E0044616E6973ED
:10264200682053616A6A61640042696C616C20416E
:102652007A68617200556E6B6E6F776E0048616DBD
:102662007A61204D7572616400416264756C6C61BF
:102672006820497266616E00536861686565722000
:0626820053616A69640067
:00000001FF
