:100000000C9464000C948C000C948C000C948C0068
:100010000C948C000C948C000C948C000C948C0030
:100020000C948C000C948C000C948C000C94980311
:100030000C948C000C948C000C948C000C948C0010
:100040000C943B0C0C948C000C943A0F0C946C0F99
:100050000C948C000C948C000C948C000C948C00F0
:100060000C948C000C948C0000000008000201002D
:100070000003040700000000000000000102040863
:100080001020408001020408102001020408102002
:10009000040404040404040402020202020203032E
:1000A00003030303000000002300260029000000D2
:1000B0000000250028002B0000000000240027007D
:1000C0002A0099029C0F450311241FBECFEFD8E0F0
:1000D000DEBFCDBF12E0A0E0B1E0E0E4F9E202C093
:1000E00005900D92A23FB107D9F724E0A2EFB2E04C
:1000F00001C01D92A838B207E1F710E0C6ECD0E0CD
:1001000004C02297FE010E943D12C23CD107C9F7EC
:100110000E94E00F0C9493140C940000CF93DF9393
:1001200066E470E08BE893E00E942705CEE0D1E022
:1001300061E088810E94960D64EF71E080E090E0BC
:100140000E94B40C60E08881DF91CF910C94960DF1
:10015000CF93DF93CEE0D1E061E088810E94960DDD
:1001600064EF71E080E090E00E94B40C60E0888170
:100170000E94960D60EA70E08BE893E0DF91CF91EA
:100180000C94270526E040E855E260E070E087EE39
:1001900093E00E94D80E68E771E087EE93E00E943A
:1001A000531020E042E060E18EE893E00E944206B6
:1001B000E0918E03F0918F030280F381E02D4CE0FB
:1001C00050E065E871E08EE893E0099561E0809188
:1001D0000E010E945D0D60E080910A010E945D0D9C
:1001E00060E080910C010E945D0D6EE070E08BE894
:1001F00093E00E94EE040E94620386EA93E00E946C
:10020000E90880910C010E94CC0D892B11F40C940B
:10021000A80080910C010E94CC0D019711F40C9460
:100220008E0008958EE893E00E94210662E971E055
:100230008EE893E00C943B108EE893E00E94210638
:100240008EE893E00E9400078EE893E00E94070783
:1002500065EA71E08EE893E00C943B10CF93DF9356
:10026000EC018EE893E00E942106BE018EE893E047
:10027000DF91CF910C942D100F931F93CF93DF93A9
:1002800086EA93E00E94130C811102C080E039C01D
:1002900086EA93E00E94320C8823C1F307EA13E058
:1002A000C6EFD2E08091A60390E09E01265F324027
:1002B000281739075CF4F80161918F01699340E1D7
:1002C00050E087EE93E00E94C110ECCF4091F20223
:1002D0005091F3026091F4027091F502485D5F4F16
:1002E0006F4F7F4F4093F2025093F3026093F402FA
:1002F0007093F5022AE030E087EE93E00E94C81088
:1003000081E0DF91CF911F910F91089564EE72E02B
:100310008AEF92E00E94C5118091F2029091F3025F
:10032000A091F402B091F502E0E3F1E020E030E0CA
:10033000419151916191719184179507A607B70773
:1003400049F486E0829FB001839F700D1124615EA5
:100350007C4F1AC02F5F3F4F2231310549F7E0E152
:10036000F1E020E030E04191519161917191841769
:100370009507A607B707B1F486E0829FB001839F77
:10038000700D11246F5F7C4F8AEF92E00E94A511DF
:100390006AEF72E087EE93E00E94411081E0809363
:1003A000000308952F5F3F4F28303105E1F610928A
:1003B000000380E00895CF93DF93EC018EE893E093
:1003C0000E94210665EB71E08EE893E00E943B10ED
:1003D00041E061E08EE893E00E942806BE018EE8CD
:1003E00093E0DF91CF910C942D10CF92DF92EF929A
:1003F000FF921F93CF93DF9300D000D000D0CDB7F2
:10040000DEB764EE72E08AEF92E00E94C5110E94AE
:100410001C011092000311E080910C010E94CC0D90
:10042000892BB9F480910A010E94CC0D019739F40F
:100430006EEB71E08AEF92E00E94C5112AC00E9423
:100440003C01882309F45AC00E948601811121C011
:1004500055C080910C010E94CC0D019709F05BC042
:100460000E948E0064EC71E0CE0101960E948F1113
:10047000CE0101960E942E01CE0101960E9421110B
:1004800080910C010E94CC0D0197D1F30E94A8002D
:1004900042C01093000380910003813009F0BCCF6B
:1004A0006AEF72E0CE0101960E94BC11CE01019666
:1004B0000E94DB01CE0101960E9421110E948E0054
:1004C0000E94850C6B01EE24D7FCE094FE2C8091F9
:1004D0000C010E94CC0D892B09F09ECF0E94850C47
:1004E0006C197D098E099F09683873418105910552
:1004F00070F30E94A8000E94F501E9CF0E943C0120
:10050000882349F20E9486018111C5CF0E94120101
:100510000E94F501C0CF26960FB6F894DEBF0FBE3D
:10052000CDBFDF91CF911F91FF90EF90DF90CF90E3
:100530000895CF92EF920F9349E06AE086EA93E044
:100540000E94AF0787E0C82E96E0E92E05E024E080
:1005500043E062E08EE893E00E94E0068BE893E0DF
:100560000E9454046FEC71E08FE193E00E948F11C0
:1005700066ED71E085E293E00E948F116EED71E00F
:100580008BE293E00E948F1166EE71E081E393E0CD
:100590000E948F116FEE71E087E393E00E948F114C
:1005A0006CEF71E08DE393E00E948F1168E072E0E0
:1005B00083E493E00E948F116DE072E089E493E0A0
:1005C0000E948F1167E172E08FE493E00E948F1127
:1005D00062E272E085E593E00E948F116FE272E0C3
:1005E0008BE593E00E948F1169E372E081E693E06E
:1005F0000E948F1165E472E087E693E00E948F11FC
:100600006DE472E08DE693E00E948F116AE572E07E
:1006100083E793E00E948F1166E672E089E793E03A
:100620000E948F1163E772E08FE793E00E948F11C1
:100630006CE772E085E893E00E948F1167E872E052
:1006400081E093E00E948F1165E972E087E093E01A
:100650000E948F1161EA72E08DE093E00E948F1199
:100660006DEA72E083E193E00E948F116CEB72E01F
:1006700089E193E00E948F1164EE72E08AEF92E0CC
:100680000F91EF90CF900C948F11CF93DF938AEF5F
:1006900092E00E942111CFE1D3E02697CE010E9483
:1006A000211183E0C130D807C1F7CBE8D3E026970A
:1006B000CE010E94211183E0CF31D807C1F7DF912D
:1006C000CF910895CF93CFB7F8948091B70381115C
:1006D00027C0EAE9F0E08491E6E8F0E09491E82FA1
:1006E000F0E0EE0FFF1FE854FF4FA591B4918C91FD
:1006F000892321F461E08AE00E94960D61E08AE09E
:100700000E945D0D8CB580618CBD8CB580648CBD04
:1007100061E08DE00E945D0D61E08BE00E945D0D67
:100720008091B7038F5F8093B703CFBFCF910895B8
:100730001F920F920FB60F9211242F933F934F9356
:100740005F936F937F938F939F93AF93BF93EF9339
:10075000FF938091B90387FF05C010928500109226
:1007600084001AC02091B903332727FD309580916A
:10077000B80390E0281739077CF48091B9039927D2
:1007800087FD9095FC01EE0FFF1FE80FF91FE6545F
:10079000FC4F808186FD15C08091B9038F5F8093E7
:1007A000B9032091B903332727FD30958091B80311
:1007B00090E028173907BCF48091B9038C305CF1C4
:1007C00012C08091B903992787FD9095FC01EE0F27
:1007D000FF1FE80FF91FE654FC4F808160E08F7324
:1007E0000E94960DD9CF8091840090918500049647
:1007F00080349C4918F480E49CE905C08091840011
:1008000090918500049690938900809388008FEFE3
:100810008093B90338C02091840030918500809185
:10082000B903992787FD9095FC01EE0FFF1FE80F94
:10083000F91FE654FC4F81819281820F931F9093A0
:100840008900809388008091B903992787FD90954E
:10085000FC01EE0FFF1FE80FF91FE654FC4F8081EB
:1008600086FF11C08091B903992787FD9095FC01FF
:10087000EE0FFF1FE80FF91FE654FC4F808161E087
:100880008F730E94960DFF91EF91BF91AF919F9151
:100890008F917F916F915F914F913F912F910F9029
:1008A0000FBE0F901F9018952091B8032C30A0F424
:1008B00031E0320F3093B803FC012083822F90E0A7
:1008C000FC01EE0FFF1FE80FF91FE654FC4F88EB09
:1008D0009BE09283818308952FEFFC01208308958C
:1008E000DF92EF92FF920F931F93CF93DF93EC0170
:1008F000D62E7A01890188818C3008F066C061E0CB
:100900008D2D0E945D0D8881A82FB0E0FD01EE0FB6
:10091000FF1FEA0FFB1FE654FC4F2D2D2F73908114
:10092000907C922B908360E272E06E197F0977FFD2
:1009300002C06D5F7F4F7595679575956795698363
:1009400040E659E0401B510B57FF02C04D5F5F4F1F
:1009500055954795559547954A836CE00E94EE1151
:100960009CE0899FB001112420E030E0A901460FEE
:10097000571FFA01EE0FFF1FE40FF51FE654FC4F5F
:10098000908196FD16C02F5F3F4F2C30310571F7D7
:1009900081110FC01092800082E08093810010923C
:1009A000850010928400B19A80916F0082608093DC
:1009B0006F00888190E0FC01EE0FFF1FE80FF91F28
:1009C000E654FC4F8081806480838881DF91CF91E1
:1009D0001F910F91FF90EF90DF90089520E639E08E
:1009E00040E252E00C947004FC0180818C3070F580
:1009F000918128E830E0291B310997FD3395220FBA
:100A0000331F220F331F621773077CF0928128E592
:100A100032E0291B310997FD3395220F331F220F36
:100A2000331F621773070CF49B0122503109220F08
:100A3000331F4FB7F89490E0FC01EE0FFF1FE80F53
:100A4000F91FE654FC4F328321834FBF08954F9224
:100A50005F926F927F92AF92BF92CF92DF92EF92AE
:100A6000FF920F931F93CF93DF93EC01603282E0EC
:100A700078070CF040C077FD06C0653B71052CF08F
:100A800064EB70E002C060E070E0898128E830E04B
:100A9000281B310987FD3395220F331F220F331F87
:100AA0005901CC24B7FCC094DC2C882777FD8095B5
:100AB000982F2A8148E552E0421B510927FD5395A2
:100AC000440F551F440F551F2A01662457FC60949C
:100AD000762C7F926F925F924F9214EBE12EF12C65
:100AE00000E010E020E030E0A9010E94DA100F9051
:100AF0000F900F900F90CE01DF91CF911F910F912A
:100B0000FF90EF90DF90CF90BF90AF907F906F906D
:100B10005F904F900C94F404CF93DF93EC0160E06E
:100B20008E810E94960D81E090E00E94EE0C61E0C3
:100B30008E810E94960D81E090E00E94EE0C60E0B4
:100B40008E810E94960D84E690E0DF91CF910C9407
:100B5000EE0CEF92FF920F931F93CF93DF938C01D4
:100B6000C0E0D0E0E62EF12CB7010C2E02C0759546
:100B700067950A94E2F76170F801EC0FFD1F878119
:100B80000E94960D2196C430D10571F7C801DF91FE
:100B9000CF911F910F91FF90EF900C948C05EF92E5
:100BA000FF920F931F93CF93DF938C01C0E0D0E0AF
:100BB000E62EF12CB7010C2E02C0759567950A94AC
:100BC000E2F76170F801EC0FFD1F87810E94960D1E
:100BD0002196C830D10571F7C801DF91CF911F91DF
:100BE0000F91FF90EF900C948C051F93CF93DF93A0
:100BF000EC01162F642F8C810E94960D8D818F3F02
:100C000019F060E00E94960D8F85612F84FF06C069
:100C1000CE01DF91CF911F910C94CF0570E084E05D
:100C2000759567958A95E1F7CE010E94A905612F18
:100C3000CE01DF91CF911F910C94A90540E00C9457
:100C4000F50561E00E941E0680ED97E00C94EE0C25
:100C5000443008F043E0FC012389421710F04FEFC5
:100C6000420FFC01E40FF11D2489260F2068622F3A
:100C70000C941E06FC016089262F2460208B6C607A
:100C80000C941E060F931F93CF93DF93EC01423019
:100C900018F08F8588608F874B8B1C8A80E48D8B42
:100CA0006E8B70E0605C7F4F6F8B222329F04130A8
:100CB00019F48F8584608F8761E08C810E945D0DBF
:100CC0008D818F3F19F061E00E945D0D61E08E81A2
:100CD0000E945D0D00E010E08F8584FF03C088E076
:100CE00090E002C084E090E00817190754F4FE0178
:100CF000E00FF11F61E087810E945D0D0F5F1F4FC4
:100D0000EBCF80E593EC0E94EE0C60E08C810E94BA
:100D1000960D60E08E810E94960D8D818F3F19F0B7
:100D200060E00E94960D6F8564FD1DC063E0CE01FA
:100D30000E94A90584E991E10E94EE0C63E0CE01D6
:100D40000E94A90584E991E10E94EE0C63E0CE01C6
:100D50000E94A90586E990E00E94EE0C62E0CE01B7
:100D60000E94A90516C06062CE010E941E0684E999
:100D700091E10E94EE0C6F856062CE010E941E061A
:100D800086E990E00E94EE0C6F856062CE010E94C1
:100D90001E066F856062CE010E941E0684E0888B6D
:100DA000CE010E943A06CE010E94210682E0898B84
:100DB00066E0CE01DF91CF911F910F910C941E063A
:100DC000CF92EF920F93FC01138212828EEC92E08D
:100DD0009183808364838FEF858346832783008795
:100DE000E186C2861386148615861686178620E04D
:100DF00041E060E1CF010F91EF90CF900C9442065B
:100E0000FC0160896E7F608B68600C941E06FC019B
:100E100061896E7F618B64600C941E0641E00E94C4
:100E2000F50581E090E008952091B603222399F022
:100E30003FB7F8942091B603213059F42DB3209395
:100E4000B4034DB32091B503209524232DBB3FBFA0
:100E500002C03093B4038CBD9DBD08958EBD0000CB
:100E60000DB407FEFDCF8EB508958091B60388239B
:100E700061F09FB7F8942091B6038091B4032130BC
:100E800019F48DBB9FBF08958FBF08957F928F92F5
:100E90009F92AF92BF92CF92DF92EF92FF920F9309
:100EA0001F93CF93DF936C01162F942EE9011E77C9
:100EB000106883E590E00E94140760E0F6018485E5
:100EC0000E94960D9A94812F0E942E077C2EEC2E64
:100ED000FD2EAA24A394B12C8E2D8719891528F5EF
:100EE00081111AC00023C1F0802F812C883048F472
:100EF0009501082E01C0220F0A94EAF7822A8F5F1B
:100F0000F5CF812F0E942E07982D9095288192234E
:100F10008821982B988305C0812F0E942E07F70106
:100F20008083FFEFEF1AFF0AD7CFC90DD11D80E0F4
:100F30000E942E07888361E0F60184850E94960D49
:100F4000DF91CF911F910F91FF90EF90DF90CF90A5
:100F5000BF90AF909F908F907F900C943507FC01CD
:100F6000648745870895EF92FF921F93CF93DF9395
:100F70001F92CDB7DEB77C01162F83E590E0498341
:100F80000E94140760E0F70184850E94960D812F6E
:100F90008E770E942E074981842F0E942E0761E0E0
:100FA000F70184850E94960D0F90DF91CF911F91DC
:100FB000FF90EF900C943507CF92DF92EF92FF9263
:100FC0000F931F93CF93DF9300D0CDB7DEB78C0183
:100FD000E62EF42E83E590E029833A830E941407DD
:100FE00060E0F80184850E94960D8E2D8E770E9418
:100FF0002E072981E22EC22E3A81D32E8C2D8E19F6
:101000008F1530F4F60181916F010E942E07F6CF03
:1010100061E0F80184850E94960D0F900F90DF919A
:10102000CF911F910F91FF90EF90DF90CF900C9494
:1010300035071F93CF93DF93EC01162F83E590E0E4
:101040000E94140760E08C850E94960D812F8E7798
:1010500080680E942E0780E00E942E07182F61E012
:101060008C850E94960D0E943507812FDF91CF91CC
:101070001F9108950F9341110E9446070F91089503
:10108000EF92FF921F93CF93DF931F92CDB7DEB7FE
:101090007C01162F49830E9419084981482B612F32
:1010A000C7010F90DF91CF911F91FF90EF900C94AB
:1010B000B307EF92FF921F93CF93DF931F92CDB7A9
:1010C000DEB77C01162F49830E941908498140959B
:1010D0004823612FC7010F90DF91CF911F91FF909F
:1010E000EF900C94B307DF92EF92FF920F931F9350
:1010F000CF93DF93EC018B01D42E790140E062E0C5
:101100000E94B30744E06AE0CE010E94B30740E8C2
:1011100064E1CE010E94400898014D2D62E1CE01AC
:101120000E94DC0743E062E0CE010E94B30708E8BA
:1011300013E16AE0CE010E94190882FD05C001504A
:101140001109B9F783E012C040E062E0CE010E94CD
:10115000B30764E4CE010E941908F701808362E4BA
:10116000CE010E941908F701818380E0DF91CF91C1
:101170001F910F91FF90EF90DF900895CF93DF9331
:10118000EC014FE062E00E94B30762E370E080E0B0
:1011900090E00E94B40C62E0CE010E94190884FD28
:1011A000FACFDF91CF910895CF93DF93EC0168E2FE
:1011B0000E941908982F9370933041F0482F436094
:1011C00068E2CE01DF91CF910C94B307DF91CF910C
:1011D0000895CF93DF93EC0161E08C850E945D0D53
:1011E00061E08C850E94960D61E08D850E945D0D09
:1011F0008D850E94CC0D892B59F461E08D850E946C
:10120000960D62E370E080E090E00E94B40C03C0B1
:10121000CE010E94BE0840E864E5CE010E94B307FB
:1012200049EA66E5CE010E94B30743E068E5CE01D6
:101230000E94B30748EE6AE5CE010E94B30740E47E
:101240006AE2CE010E94B3074DE362E2CE010E9442
:10125000B307CE01DF91CF910C94D4082F923F9227
:101260005F926F927F928F929F92AF92BF92CF9236
:10127000DF92EF92FF920F931F93CF93DF9300D0F3
:1012800000D0CDB7DEB73C01962E542E302E082D5F
:10129000A114B10419F0F501408101C040E0242EF1
:1012A000F0E10F9F200C112440E062E0C3012B838A
:1012B0003C830E94B3074FE768E0C3010E94B30775
:1012C00040E864E1C3010E9440082B813C81432D2A
:1012D00062E1C3010E94DC07422D6AE1C3010E9462
:1012E000B307492D62E0C3010E94B3078CE0981256
:1012F00005C040E86AE1C3010E94400890ED292E34
:1013000097E0392E68E0C3010E941908982F9521B3
:1013100039F480FD62C0E1E02E1A310899F75DC012
:101320006CE0C3010E941908982E837109F057C020
:10133000E114F104F1F0C114D104D9F064E1C30166
:101340000E941908482FF6018081841708F449C0CB
:101350004083970162E1C3010E943A0868E1C3013A
:101360000E941908182F1770A114B10411F0F5018B
:10137000108393FC38C0E114F104B9F1C114D10415
:10138000A1F1888D882389F1F6014081413019F45B
:10139000143019F420C0423010F487E027C0111136
:1013A000FCCF42509E012F5F3F4FB701C3010E9407
:1013B000730881111BC0F6018081E80EF11CF70152
:1013C0003297908189819813E8CF319690818A81F4
:1013D0009813E3CF0AC08FEF09C083E007C081E014
:1013E00005C084E003C082E001C080E00F900F9050
:1013F0000F900F90DF91CF911F910F91FF90EF9081
:10140000DF90CF90BF90AF909F908F907F906F9024
:101410005F903F902F9008958F92AF92BF92CF929E
:10142000DF92EF92FF920F931F93AF928C2C570194
:1014300068017901042F9B0140E36CE00E942E09B2
:101440000F901F910F91FF90EF90DF90CF90BF9082
:10145000AF908F9008954F925F926F927F928F928C
:101460009F92AF92CF92EF92FF920F931F93CF93E1
:10147000DF9300D0CDB7DEB73C016A832A01490172
:101480004115510529F1F9018081823008F140E8C8
:101490006CE1C3010E94590887E08983A12CC12C0B
:1014A000CE0101967C018401920141E0BE016E5F94
:1014B0007F4FC3010E940C0A81110DC0F40180818D
:1014C000823041F481E09981911105C080E003C030
:1014D00084E001C081E00F900F90DF91CF911F91C8
:1014E0000F91FF90EF90CF90AF909F908F907F9053
:1014F0006F905F904F9008959A01AB0166E20C9453
:101500002B0A2F923F924F925F926F927F928F920F
:101510009F92AF92BF92CF92DF92EF92FF920F9382
:101520001F93CF93DF93CDB7DEB72D970FB6F89407
:10153000DEBF0FBECDBF3C012B01342E20E52417AA
:1015400008F409C140E86CE10E945908BB24B39437
:1015500032E0B31691F043E0B416E1F081E0B81246
:10156000FEC083E989833320D1F041E0D2018C9120
:10157000853008F440E0D12C17C085E989833320F9
:1015800081F041E0F2018081883008F440E073E0AE
:10159000D72E0AC087E9898366E0D62E04C0D12CF5
:1015A00002C053E0D52E40E0532DF8EFDF9E500DE2
:1015B000112457FD50E0442321F088E88B8373E029
:1015C00001C072E091E0852F877009F490E0852FCB
:1015D000859585958595890F21F4442311F1585FF0
:1015E00020C0442311F063E001C064E0861708F4D2
:1015F000682F80E090E092012D0D311DE72FE80F5C
:10160000A1E0B0E0AC0FBD1FAE0FB11DFD01D901CF
:10161000A80FB91F1196AC91A0830196861770F39D
:10162000DCCF43E0242E5032FCF0B0E7BA838C814B
:101630009B8189279D8189279E8189278F839E0190
:10164000285F3F4F47E0BE016F5F7F4FC3015D875B
:101650000E9473085D858111CDC01B862A86FE011C
:1016600037964F0179E01EC0952F97709B87252FE5
:1016700025952595259582E0820F392FF0E18F9FE2
:10168000300D11243A8371E0911101C070E0780FA0
:1016900088248394912C8C0E9D1E880E911C87E0CB
:1016A000821B8A87CB844C2D4295407F4C0D6AE18A
:1016B000C3015D877C870E94B307A12C9E01255F33
:1016C0003F4F79018E01065F1F4F94017C85472FA4
:1016D000BE016F5F7F4FC3010E940C0A5D8582309F
:1016E000A1F56CE1C3010E9419085D8585FD35C037
:1016F000482F4F7109F440E2842F90E0252F3327C3
:1017000027FD30952817390754F5542F0197877016
:101710009927242F2595259525952F5F31E0811157
:1017200001C030E0230FE1E0F0E0EC0FFD1FE20F1D
:10173000F11DA1E0B0E002C0AA0FBB1F8A95E2F73D
:10174000CD019081982B90836ECF811153C0503280
:1017500044F450E26ACF86E04DC082E04BC085E0A1
:1017600049C08B81883819F052E044E002C053E050
:1017700043E080E090E092012D0D311DF901E80F6A
:10178000F91F652F680FA1E0B0E0AC0FBD1FA60FD9
:10179000B11D6C9161830196841780F38A85833033
:1017A00031F58B85811123C09E012D5F3F4F41E0B4
:1017B000B401C3010E94730881111CC09B81F40114
:1017C0008181981316C09C818281981312C08081F8
:1017D00082FF02C0B394BCCED2011B968C931B97A0
:1017E0008B2D880F8B0D8F5F8C9380E003C081E081
:1017F00001C087E02D960FB6F894DEBF0FBECDBFB7
:10180000DF91CF911F910F91FF90EF90DF90CF90DC
:10181000BF90AF909F908F907F906F905F904F9010
:101820003F902F900895CF93DF9300D01F92CDB7B4
:10183000DEB722E02B83AE014D5F5F4FBE016F5FCD
:101840007F4F0E947C0A882331F091E0823009F0BA
:1018500090E0892F01C081E00F900F900F90DF91F1
:10186000CF91089540E0BC010E94810A91E081116E
:1018700090E0892F08951F920F920FB60F921124B6
:101880002F933F938F939F93AF93BF938091DF03E9
:101890009091E003A091E103B091E2033091DE0367
:1018A00023E0230F2D3720F40196A11DB11D05C0A3
:1018B00026E8230F0296A11DB11D2093DE0380931D
:1018C000DF039093E003A093E103B093E2038091E0
:1018D000E3039091E403A091E503B091E603019640
:1018E000A11DB11D8093E3039093E403A093E5034E
:1018F000B093E603BF91AF919F918F913F912F914C
:101900000F900FBE0F901F9018952FB7F89460910D
:10191000DF037091E0038091E1039091E2032FBF18
:1019200008953FB7F8948091E3039091E403A09168
:10193000E503B091E60326B5A89B05C02F3F19F03B
:101940000196A11DB11D3FBF6627782F892F9A2FC1
:10195000620F711D811D911D42E0660F771F881F68
:10196000991F4A95D1F708958F929F92AF92BF9297
:10197000CF92DF92EF92FF926B017C010E94910C5B
:101980004B015C01C114D104E104F104F1F00E94A7
:10199000DD110E94910C681979098A099B09683E3A
:1019A00073408105910570F321E0C21AD108E10866
:1019B000F10888EE880E83E0981EA11CB11CC114AA
:1019C000D104E104F10429F7DDCFFF90EF90DF901F
:1019D000CF90BF90AF909F908F90089582309105E7
:1019E00038F0880F991F880F991F05970197F1F715
:1019F0000895789484B5826084BD84B5816084BD87
:101A000085B5826085BD85B5816085BDEEE6F0E077
:101A1000808181608083E1E8F0E0108280818260D3
:101A20008083808181608083E0E8F0E08081816054
:101A30008083E1EBF0E0808184608083E0EBF0E084
:101A4000808181608083EAE7F0E080818460808328
:101A500080818260808380818160808380818068D2
:101A600080831092C1000895833081F028F4813082
:101A700099F08230A1F008958730A9F08830B9F04C
:101A80008430D1F4809180008F7D03C080918000EC
:101A90008F7780938000089584B58F7702C084B5D6
:101AA0008F7D84BD08958091B0008F7703C08091B1
:101AB000B0008F7D8093B0000895CF93DF9390E0C6
:101AC000FC01E458FF4F2491FC01E057FF4F849143
:101AD000882349F190E0880F991FFC01E854FF4FDB
:101AE000A591B49182559F4FFC01C591D4919FB7A8
:101AF000611108C0F8948C91209582238C93888181
:101B000082230AC0623051F4F8948C91322F3095C0
:101B100083238C938881822B888304C0F8948C91D2
:101B2000822B8C939FBFDF91CF9108950F931F93CA
:101B3000CF93DF931F92CDB7DEB7282F30E0F901A6
:101B4000E859FF4F8491F901E458FF4F1491F901CE
:101B5000E057FF4F04910023C9F0882321F06983E7
:101B60000E94340D6981E02FF0E0EE0FFF1FE25577
:101B7000FF4FA591B4919FB7F8948C91611103C068
:101B80001095812301C0812B8C939FBF0F90DF9113
:101B9000CF911F910F910895CF93DF93282F30E0BD
:101BA000F901E859FF4F8491F901E458FF4FD491AE
:101BB000F901E057FF4FC491CC2391F081110E94AD
:101BC000340DEC2FF0E0EE0FFF1FEC55FF4FA59109
:101BD000B4912C912D2381E090E021F480E002C0AB
:101BE00080E090E0DF91CF910895FC01818D228DFE
:101BF00090E0805C9F4F821B91098F739927089515
:101C0000FC01918D828D981731F0828DE80FF11DC6
:101C1000858D90E008958FEF9FEF0895FC01918DE1
:101C2000828D981761F0828DDF01A80FB11D5D963E
:101C30008C91928D9F5F9F73928F90E008958FEFAC
:101C40009FEF089582E99FE0892B49F080E090E0C2
:101C5000892B29F00E94920F81110C9400000895A5
:101C6000FC01848DDF01A80FB11DA35ABF4F2C9139
:101C7000848D90E001968F739927848FA689B78908
:101C80002C93A089B1898C9180648C93938D848DE1
:101C9000981306C00288F389E02D80818F7D8083B0
:101CA0000895CF93DF93EC01888D8823C9F0EA89EA
:101CB000FB89808185FD05C0A889B9898C9186FD45
:101CC0000FC00FB607FCF5CF808185FFF2CFA88942
:101CD000B9898C9185FFEDCFCE010E94300EE7CF00
:101CE000DF91CF910895CF92DF92FF920F931F93D0
:101CF000CF93DF931F92CDB7DEB76C0181E0D601A1
:101D000058968C9358975B969C915B975C968C91B8
:101D10005C97981307C05096ED91FC915197808184
:101D200085FD2EC0F601038D10E00F5F1F4F0F736E
:101D30001127F02EF601848DF81211C00FB607FCA2
:101D4000F9CFD6015096ED91FC915197808185FF96
:101D5000F1CFC60169830E94300E6981EBCF838D7C
:101D6000E80FF11DE35AFF4F6083D6015B960C9399
:101D70005B975296ED91FC915397808180620CC0E5
:101D8000D6015696ED91FC91579760835096ED9150
:101D9000FC91519780818064808381E090E00F9076
:101DA000DF91CF911F910F91FF90DF90CF90089519
:101DB000BF92CF92DF92EF92FF92CF93DF93EC012D
:101DC0006A017B01B22EE889F98982E0808341159E
:101DD00081EE580761057105A1F060E079E08DE3BF
:101DE00090E0A70196010E94FA11215031094109A2
:101DF00051095695479537952795211580E1380764
:101E000098F0E889F989108260E874E88EE190E042
:101E1000A70196010E94FA11215031094109510987
:101E20005695479537952795EC85FD853083EE854A
:101E3000FF852083188EEC89FD89B082EA89FB89B1
:101E4000808180618083EA89FB89808188608083CA
:101E5000EA89FB89808180688083EA89FB898081A7
:101E60008F7D8083DF91CF91FF90EF90DF90CF90B7
:101E7000BF9008951F920F920FB60F9211242F93C7
:101E80008F939F93EF93FF93E091F703F091F80303
:101E90008081E091FD03F091FE0382FD12C09081EC
:101EA000809100048F5F8F7320910104821751F09D
:101EB000E0910004F0E0E951FC4F958F809300041D
:101EC00001C08081FF91EF919F918F912F910F9091
:101ED0000FBE0F901F9018951F920F920FB60F9282
:101EE00011242F933F934F935F936F937F938F931F
:101EF0009F93AF93BF93EF93FF9387EE93E00E947E
:101F0000300EFF91EF91BF91AF919F918F917F9193
:101F10006F915F914F913F912F910F900FBE0F9056
:101F20001F90189587EE93E00E94F50D21E0892B14
:101F300009F420E0822F08951092EA031092E90339
:101F400088EE93E0A0E0B0E08093EB039093EC0385
:101F5000A093ED03B093EE0386ED92E09093E80337
:101F60008093E70385EC90E09093F4038093F30370
:101F700084EC90E09093F6038093F50380EC90E07E
:101F80009093F8038093F70381EC90E09093FA0329
:101F90008093F90382EC90E09093FC038093FB0321
:101FA00086EC90E09093FE038093FD031092000472
:101FB00010920104109202041092030408950895EF
:101FC0000E94F90C0E94DF0F0E94C200C2E2DEE014
:101FD0000E94F5012097E1F30E94220EF9CFCF92E3
:101FE000DF92EF92FF920F931F93CF93DF937C01C9
:101FF0006A01EB0100E010E00C151D0571F069911C
:10200000D701ED91FC910190F081E02DC701099578
:10201000892B19F00F5F1F4FEFCFC801DF91CF91D0
:102020001F910F91FF90EF90DF90CF900895611571
:10203000710581F0DB010D900020E9F7AD01415001
:102040005109461B570BDC01ED91FC910280F38195
:10205000E02D099480E090E00895DC01ED91FC9181
:10206000DB0114964D915C9115976D917C910280E6
:10207000F381E02D09940C94171062EE72E00C9439
:1020800017100F931F93CF93DF93EC010E942D1035
:102090008C01CE010E943D10800F911FDF91CF91E6
:1020A0001F910F9108950F931F93CF93DF93EC012E
:1020B0000E9417108C01CE010E943D10800F911FCD
:1020C000DF91CF911F910F9108958F929F92AF92C0
:1020D000BF92DF92EF92FF920F931F93CF93DF9304
:1020E000CDB7DEB7A1970FB6F894DEBF0FBECDBF58
:1020F0007C01F42FD52ECB0119A2223008F42AE05E
:102100008E010F5D1F4F822E912CA12CB12C6F2FB1
:102110007D2DA50194010E94FA11F22FD32ECA0140
:10212000015011096A3014F4E0E301C0E7E3E60F5F
:10213000D801EC93232B242B252B49F7B801C70199
:102140000E941710A1960FB6F894DEBF0FBECDBF48
:10215000DF91CF911F910F91FF90EF90DF90BF9093
:10216000AF909F908F9008952115310541F4DC01C7
:10217000ED91FC910190F081E02D642F09940C9475
:1021800065109A01462F50E060E070E00C94B410A6
:102190000F931F93CF93DF93EC010E94B4108C0137
:1021A000CE010E943D10800F911FDF91CF911F91B2
:1021B0000F9108954F925F926F927F92AF92BF926C
:1021C000CF92DF92EF92FF920F931F93CF93DF9303
:1021D000CDB7DEB729013A01621B730B840B950B57
:1021E00029893A894B895C892A193B094C095D097F
:1021F000298B3A8B4B8B5C8B9B01AC0169897A896B
:102200008B899C890E94DE11E418F50806091709DC
:10221000A80197010E941C122A0D3B1D4C1D5D1D3B
:10222000CA01B901DF91CF911F910F91FF90EF90FB
:10223000DF90CF90BF90AF907F906F905F904F9066
:102240000895FC01808191810C94F312CF93DF9368
:10225000EC0188819981009711F00E94F312198294
:1022600018821D821C821B821A82DF91CF910895F1
:102270000F931F93CF93DF93EC018B016F5F7F4F21
:10228000888199810E948213009731F09983888315
:102290001B830A8381E001C080E0DF91CF911F9111
:1022A0000F910895CF93DF93EC0188819981892B59
:1022B00029F08A819B818617970760F4CE010E94DE
:1022C0003811882341F08C819D81892B19F4E88194
:1022D000F981108281E0DF91CF910895EF92FF9212
:1022E0000F931F93CF93DF93EC017B018A01BA0117
:1022F0000E945211811104C0CE010E94261107C014
:102300001D830C83B701888199810E945514CE01E9
:10231000DF91CF911F910F91FF90EF900895FC01F5
:102320001182108213821282158214826115710546
:1023300059F0FB0101900020E9F7AF01415051092C
:10234000461B570B0C946E110895CF93DF93EC014D
:10235000FB018617970761F0608171816115710536
:1023600029F0448155810E946E1102C00E942611FD
:10237000CE01DF91CF910895FC011182108213826A
:102380001282158214820C94A511CF93DF93EC0175
:102390006115710561F0FB0101900020E9F7AF01C3
:1023A00041505109461B570B0E946E1102C00E94FA
:1023B0002611CE01DF91CF9108950895DB018F930F
:1023C0009F930E944112BF91AF91A29F800D911DDA
:1023D000A39F900DB29F900D11240895991B79E051
:1023E00004C0991F961708F0961B881F7A95C9F7A5
:1023F00080950895A1E21A2EAA1BBB1BFD010DC0FA
:10240000AA1FBB1FEE1FFF1FA217B307E407F507A4
:1024100020F0A21BB30BE40BF50B661F771F881F80
:10242000991F1A9469F760957095809590959B0116
:10243000AC01BD01CF010895052E97FB1EF4009459
:102440000E94331257FD07D00E94FA1107FC03D0F7
:102450004EF40C94331250954095309521953F4F92
:102460004F4F5F4F089590958095709561957F4F80
:102470008F4F9F4F0895EE0FFF1F0590F491E02DB1
:1024800009940E944C12A59F900DB49F900DA49F9B
:10249000800D911D11240895A29FB001B39FC0012A
:1024A000A39F700D811D1124911DB29F700D811D80
:1024B0001124911D0895CF93DF938230910510F47C
:1024C00082E090E0E0918604F091870420E030E023
:1024D000A0E0B0E0309739F14081518148175907A9
:1024E000B8F04817590771F482819381109729F049
:1024F00013969C938E9312972CC09093870480938D
:10250000860427C02115310531F04217530718F012
:10251000A901DB0101C0EF019A01BD01DF010280C9
:10252000F381E02DD7CF21153105F9F0281B390BA8
:102530002430310580F48A819B816115710521F079
:10254000FB019383828304C0909387048093860465
:10255000FE01329644C0FE01E20FF31F8193919376
:1025600022503109398328833AC020918404309164
:102570008504232B41F42091020130910301309313
:1025800085042093840420910001309101012115DC
:10259000310541F42DB73EB740910401509105013A
:1025A000241B350BE0918404F0918504E217F307B6
:1025B000A0F42E1B3F0B2817390778F0AC014E5FB3
:1025C0005F4F2417350748F04E0F5F1F5093850467
:1025D000409384048193919302C0E0E0F0E0CF0146
:1025E000DF91CF910895CF93DF93009709F487C0CF
:1025F000FC01329713821282C0918604D091870425
:10260000209781F420813181280F391F8091840423
:10261000909185048217930779F5F0938504E093F0
:1026200084046DC0DE0120E030E0AE17BF0750F437
:1026300012964D915C9113979D014115510509F139
:10264000DA01F3CFB383A28340815181840F951FB8
:102650008A179B0771F48D919C911197840F951F98
:1026600002969183808312968D919C911397938308
:1026700082832115310529F4F0938704E0938604C1
:102680003EC0D9011396FC93EE9312974D915D9144
:10269000A40FB51FEA17FB0779F480819181840F9D
:1026A000951F0296D90111969C938E9382819381F6
:1026B00013969C938E931297E0E0F0E08A819B81C1
:1026C000009719F0FE01EC01F9CFCE0102962881A6
:1026D0003981820F931F209184043091850428173B
:1026E000390769F4309729F4109287041092860410
:1026F00002C013821282D0938504C0938404DF91B8
:10270000CF910895A0E0B0E0E8E8F3E10C94601404
:10271000EC01CB01209719F40E945B12B8C0FE01B6
:10272000E60FF71F9E0122503109E217F30708F464
:10273000ACC0D9010D911C91119706171707B8F07D
:102740000530110508F49FC0A801445051094617EF
:10275000570708F498C002501109061B170B019384
:1027600011936D937C93CF010E94F3128CC05B0197
:10277000A01AB10A4E01800E911EA0918604B0915C
:102780008704612C712C60E070E0109709F449C057
:10279000A815B905C9F5ED90FC901197670142E0C5
:1027A000C40ED11CCA14DB0478F147018A189B08B7
:1027B000640142E0C40ED11C1296BC90129713968D
:1027C000AC91B5E0CB16D10440F0B282A3839182E4
:1027D0008082D9018D939C9309C00E5F1F4F0E0D0F
:1027E0001F1DF90111830083EB2DFA2F611571056F
:1027F00031F0DB011396FC93EE93129744C0F093F3
:102800008704E09386043FC06D917C911197661612
:10281000770608F43B01BD0112960D90BC91A02DE6
:10282000B4CF609184047091850468157905E9F44A
:1028300068167906D0F440910001509101014115CC
:10284000510541F44DB75EB76091040170910501E7
:10285000461B570BE417F507C0F4F0938504E0938B
:102860008404F901918380830EC00E945B127C0175
:10287000009759F0A801BE010E944C14CE010E949D
:10288000F312C70104C0CE0102C080E090E0CDB7D2
:10289000DEB7EEE00C947C14FB01DC0102C0019079
:1028A0000D9241505040D8F70895FB01DC01019092
:1028B0000D920020E1F708952F923F924F925F9280
:1028C0006F927F928F929F92AF92BF92CF92DF9240
:1028D000EF92FF920F931F93CF93DF93CDB7DEB7A5
:1028E000CA1BDB0B0FB6F894DEBF0FBECDBF099439
:1028F0002A88398848885F846E847D848C849B8490
:10290000AA84B984C884DF80EE80FD800C811B819D
:10291000AA81B981CE0FD11D0FB6F894DEBF0FBECC
:10292000CDBFED01089510E0C6ECD0E004C0FE017B
:102930000E943D122296C83CD107C9F7F894FFCFF8
:102940000000880480000100000008000F00100053
:102950008BCB0693B65EA7358BC129C38BD9C543F4
:102960008BCC63638BC69B831014EA2A8593387ED5
:10297000B6603905B6683FE5D6590DD58BD9C54344
:102980008BCDF4A38BB60F03B661F0C58BBDA7B397
:10299000B665CEF5B6669AA58BCB44A3B6636855EB
:1029A000304475548BEBA5638BC790D3B65EE7E5D7
:1029B0008BC188838593387E496E697469616C69BF
:1029C0007A696E6700504C65617365207761697440
:1029D0002E00556E617574686F72697A6564206344
:1029E0006172642E005363616E2043617264204201
:1029F000656C6F770057656C636F6D652000477578
:102A000065737400436C6F736520446F6F72004D83
:102A10002E41747461004D2E4D61686164004962FD
:102A2000726168696D00536865687279617200410E
:102A3000697A617A20416E736172690048616D7ACA
:102A4000612041686D6564005361696D0053616187
:102A50006420456A617A004D2E42696E20416D699D
:102A6000720048616D697320486169646572004D48
:102A7000732E204661697161004D732E204661728C
:102A800065656861004D756A7461626100557361C6
:102A90006D612052616865656C00526F68616E20DF
:102AA0004C617469660048617373616E204D6168A2
:102AB0006164004D2E57616C656564005369722036
:102AC0004D6F6873696E0044616E6973682053616D
:102AD0006A6A61640042696C616C20417A68617263
:102AE0000048616D7A61204D7572616400416264D5
:102AF000756C6C616820497266616E00536861682C
:102B00006565722053616A696400000000000E0769
:102B1000EF0F00000000730EEF0FF50D0E0E000E0C
:102B2000510E0D0A006E616E00696E66006F76666A
:022B30000000A3
:00000001FF
