:100000000C9464000C948C000C948C000C948C0068
:100010000C948C000C948C000C948C000C948C0030
:100020000C948C000C948C000C948C000C94430168
:100030000C948C000C948C000C948C000C948C0010
:100040000C9426070C948C000C940E0A0C94400A15
:100050000C948C000C948C000C948C000C948C00F0
:100060000C948C000C948C0000000008000201002D
:100070000003040700000000000000000102040863
:100080001020408001020408102001020408102002
:10009000040404040404040402020202020203032E
:1000A00003030303000000002300260029000000D2
:1000B0000000250028002B0000000000240027007D
:1000C0002A00F300700A050111241FBECFEFD8E00B
:1000D000DEBFCDBF11E0A0E0B1E0E8EDFCE102C081
:1000E00005900D92AE35B107D9F722E0AEE5B1E04B
:1000F00001C01D92A035B207E1F710E0C6ECD0E0D8
:1001000004C02297FE010E94230CC23CD107C9F70C
:100110000E94B40A0C945F0E0C94000026E040E8A4
:1001200055E260E070E08FEA91E00E94AC0960E186
:1001300071E08FEA91E00E94050B61E080910E0171
:100140000E94310860E080910A010E94310860E05D
:1001500080910C010E9431080E940D018EE691E011
:100160000C94D403CF93DF936DE171E08FEA91E0BB
:100170000E94050B8EE691E00E94FE06882381F125
:1001800065E271E08FEA91E00E94050B8EE691E056
:100190000E941D07882321F163E371E08FEA91E05B
:1001A0000E94050B80916E0190E0C817D90784F476
:1001B000FE01E259FE4F6181FE01E25AFE4F60836B
:1001C00040E150E08FEA91E00E94730B2196EACF64
:1001D0006FE471E08FEA91E0DF91CF910C94050B11
:1001E000DF91CF91089549E06AE08EE691E00E94A8
:1001F0009A026FE471E088E691E00E94E80B6FE4F8
:1002000071E082E691E00C94E80B82E691E00E94B6
:100210007A0B88E691E00C947A0BCF93CFB7F894E1
:1002200080917F01811127C0EAE9F0E08491E6E83E
:10023000F0E09491E82FF0E0EE0FFF1FE854FF4F3D
:10024000A591B4918C91892321F461E08AE00E9408
:100250006A0861E08AE00E9431088CB580618CBD3B
:100260008CB580648CBD61E08DE00E94310861E056
:100270008BE00E94310880917F018F5F80937F0126
:10028000CFBFCF9108951F920F920FB60F921124F6
:100290002F933F934F935F936F937F938F939F938E
:1002A000AF93BF93EF93FF938091810187FF05C0C8
:1002B00010928500109284001AC02091810133278A
:1002C00027FD30958091800190E0281739077CF454
:1002D00080918101992787FD9095FC01EE0FFF1F0A
:1002E000E80FF91FEE57FE4F808186FD15C0809103
:1002F00081018F5F8093810120918101332727FD48
:1003000030958091800190E028173907BCF48091E6
:1003100081018C305CF112C080918101992787FDA9
:100320009095FC01EE0FFF1FE80FF91FEE57FE4FEF
:10033000808160E08F730E946A08D9CF8091840029
:1003400090918500049680349C4918F480E49CE9DF
:1003500005C0809184009091850004969093890057
:10036000809388008FEF8093810138C020918400B2
:100370003091850080918101992787FD9095FC013E
:10038000EE0FFF1FE80FF91FEE57FE4F818192819C
:10039000820F931F90938900809388008091810140
:1003A000992787FD9095FC01EE0FFF1FE80FF91FBD
:1003B000EE57FE4F808186FF11C080918101992701
:1003C00087FD9095FC01EE0FFF1FE80FF91FEE5718
:1003D000FE4F808161E08F730E946A08FF91EF9168
:1003E000BF91AF919F918F917F916F915F914F914D
:1003F0003F912F910F900FBE0F901F901895209155
:100400007E01222399F03FB7F89420917E0121309C
:1004100059F42DB320937C014DB320917D0120959B
:1004200024232DBB3FBF02C030937C018CBD9DBDFA
:1004300008958EBD00000DB407FEFDCF8EB5089562
:1004400080917E01882361F09FB7F89420917E010E
:1004500080917C01213019F48DBB9FBF08958FBF1F
:1004600008957F928F929F92AF92BF92CF92DF9228
:10047000EF92FF920F931F93CF93DF936C01162F90
:10048000942EE9011E77106883E590E00E94FF0139
:1004900060E0F60184850E946A089A94812F0E9488
:1004A00019027C2EEC2EFD2EAA24A394B12C8E2DA5
:1004B0008719891528F581111AC00023C1F0802FF2
:1004C000812C883048F49501082E01C0220F0A942F
:1004D000EAF7822A8F5FF5CF812F0E941902982DAB
:1004E0009095288192238821982B988305C0812F8D
:1004F0000E941902F7018083FFEFEF1AFF0AD7CF9E
:10050000C90DD11D80E00E941902888361E0F601C7
:1005100084850E946A08DF91CF911F910F91FF900F
:10052000EF90DF90CF90BF90AF909F908F907F9093
:100530000C942002FC01648745870895EF92FF9296
:100540001F93CF93DF931F92CDB7DEB77C01162F99
:1005500083E590E049830E94FF0160E0F701848514
:100560000E946A08812F8E770E9419024981842F88
:100570000E94190261E0F70184850E946A080F90C9
:10058000DF91CF911F91FF90EF900C942002CF92BA
:10059000DF92EF92FF920F931F93CF93DF9300D0E0
:1005A000CDB7DEB78C01E62EF42E83E590E02983EB
:1005B0003A830E94FF0160E0F80184850E946A0886
:1005C0008E2D8E770E9419022981E22EC22E3A8149
:1005D000D32E8C2D8E198F1530F4F60181916F0179
:1005E0000E941902F6CF61E0F80184850E946A0832
:1005F0000F900F90DF91CF911F910F91FF90EF908F
:10060000DF90CF900C9420021F93CF93DF93EC01E7
:10061000162F83E590E00E94FF0160E08C850E9428
:100620006A08812F8E7780680E94190280E00E94FC
:100630001902182F61E08C850E946A080E9420022E
:10064000812FDF91CF911F9108950F9341110E9447
:1006500031020F910895EF92FF921F93CF93DF9392
:100660001F92CDB7DEB77C01162F49830E94040389
:100670004981482B612FC7010F90DF91CF911F91C6
:10068000FF90EF900C949E02EF92FF921F93CF93F6
:10069000DF931F92CDB7DEB77C01162F49830E94EE
:1006A0000403498140954823612FC7010F90DF91D2
:1006B000CF911F91FF90EF900C949E02DF92EF92EA
:1006C000FF920F931F93CF93DF93EC018B01D42EF6
:1006D000790140E062E00E949E0244E06AE0CE01BF
:1006E0000E949E0240E864E1CE010E942B03980123
:1006F0004D2D62E1CE010E94C70243E062E0CE01CF
:100700000E949E0208E813E16AE0CE010E94040301
:1007100082FD05C001501109B9F783E012C040E025
:1007200062E0CE010E949E0264E4CE010E940403B6
:10073000F701808362E4CE010E940403F701818304
:1007400080E0DF91CF911F910F91FF90EF90DF90AC
:100750000895CF93DF93EC014FE062E00E949E0288
:1007600062E370E080E090E00E94930762E0CE01D7
:100770000E94040384FDFACFDF91CF910895CF93B7
:10078000DF93EC0168E20E940403982F937093308A
:1007900041F0482F436068E2CE01DF91CF910C9485
:1007A0009E02DF91CF910895CF93DF93EC0161E03A
:1007B0008C850E94310861E08C850E946A0861E0A6
:1007C0008D850E9431088D850E94A008892B59F4DF
:1007D00061E08D850E946A0862E370E080E090E04D
:1007E0000E94930703C0CE010E94A90340E864E57C
:1007F000CE010E949E0249EA66E5CE010E949E0259
:1008000043E068E5CE010E949E0248EE6AE5CE0113
:100810000E949E0240E46AE2CE010E949E024DE3E5
:1008200062E2CE010E949E02CE01DF91CF910C9434
:10083000BF032F923F925F926F927F928F929F920F
:10084000AF92BF92CF92DF92EF92FF920F931F93DE
:10085000CF93DF9300D000D0CDB7DEB73C01962E0A
:10086000542E302E082DA114B10419F0F501408149
:1008700001C040E0242EF0E10F9F200C112440E045
:1008800062E0C3012B833C830E949E024FE768E035
:10089000C3010E949E0240E864E1C3010E942B0351
:1008A0002B813C81432D62E1C3010E94C702422D8E
:1008B0006AE1C3010E949E02492D62E0C3010E94C9
:1008C0009E028CE0981205C040E86AE1C3010E94D4
:1008D0002B0390ED292E97E0392E68E0C3010E948A
:1008E0000403982F952139F480FD62C0E1E02E1AAF
:1008F000310899F75DC06CE0C3010E940403982E93
:10090000837109F057C0E114F104F1F0C114D1046E
:10091000D9F064E1C3010E940403482FF6018081ED
:10092000841708F449C04083970162E1C3010E9423
:10093000250368E1C3010E940403182F1770A11456
:10094000B10411F0F501108393FC38C0E114F104F7
:10095000B9F1C114D104A1F1888D882389F1F60180
:100960004081413019F4143019F420C0423010F4A1
:1009700087E027C01111FCCF42509E012F5F3F4FEF
:10098000B701C3010E945E0381111BC0F601808183
:10099000E80EF11CF7013297908189819813E8CF16
:1009A000319690818A819813E3CF0AC08FEF09C0F6
:1009B00083E007C081E005C084E003C082E001C09D
:1009C00080E00F900F900F900F90DF91CF911F91CB
:1009D0000F91FF90EF90DF90CF90BF90AF909F90DE
:1009E0008F907F906F905F903F902F9008958F929F
:1009F000AF92BF92CF92DF92EF92FF920F931F932D
:100A0000AF928C2C570168017901042F9B0140E3C0
:100A10006CE00E9419040F901F910F91FF90EF90CE
:100A2000DF90CF90BF90AF908F9008954F925F92DC
:100A30006F927F928F929F92AF92CF92EF92FF929E
:100A40000F931F93CF93DF9300D0CDB7DEB73C0158
:100A50006A832A0149014115510529F1F901808173
:100A6000823008F140E86CE1C3010E94440387E052
:100A70008983A12CC12CCE0101967C0184019201B5
:100A800041E0BE016E5F7F4FC3010E94F7048111F8
:100A90000DC0F4018081823041F481E0998191118F
:100AA00005C080E003C084E001C081E00F900F909A
:100AB000DF91CF911F910F91FF90EF90CF90AF906A
:100AC0009F908F907F906F905F904F9008959A01C4
:100AD000AB0166E20C9416052F923F924F925F9203
:100AE0006F927F928F929F92AF92BF92CF92DF923E
:100AF000EF92FF920F931F93CF93DF93CDB7DEB7A3
:100B00002D970FB6F894DEBF0FBECDBF3C012B0171
:100B1000342E20E5241708F409C140E86CE10E9456
:100B20004403BB24B39432E0B31691F043E0B4160F
:100B3000E1F081E0B812FEC083E989833320D1F06F
:100B400041E0D2018C91853008F440E0D12C17C0EF
:100B500085E98983332081F041E0F201808188308A
:100B600008F440E073E0D72E0AC087E9898366E085
:100B7000D62E04C0D12C02C053E0D52E40E0532D18
:100B8000F8EFDF9E500D112457FD50E0442321F073
:100B900088E88B8373E001C072E091E0852F877055
:100BA00009F490E0852F859585958595890F21F429
:100BB000442311F1585F20C0442311F063E001C0C9
:100BC00064E0861708F4682F80E090E092012D0D14
:100BD000311DE72FE80FA1E0B0E0AC0FBD1FAE0F55
:100BE000B11DFD01D901A80FB91F1196AC91A083C9
:100BF0000196861770F3DCCF43E0242E5032FCF0D0
:100C0000B0E7BA838C819B8189279D8189279E814A
:100C100089278F839E01285F3F4F47E0BE016F5FAA
:100C20007F4FC3015D870E945E035D858111CDC04A
:100C30001B862A86FE0137964F0179E01EC0952F4C
:100C400097709B87252F25952595259582E0820F06
:100C5000392FF0E18F9F300D11243A8371E091110B
:100C600001C070E0780F88248394912C8C0E9D1E17
:100C7000880E911C87E0821B8A87CB844C2D42957D
:100C8000407F4C0D6AE1C3015D877C870E949E0214
:100C9000A12C9E01255F3F4F79018E01065F1F4FFA
:100CA00094017C85472FBE016F5F7F4FC3010E9477
:100CB000F7045D858230A1F56CE1C3010E94040355
:100CC0005D8585FD35C0482F4F7109F440E2842FC2
:100CD00090E0252F332727FD30952817390754F545
:100CE000542F019787709927242F259525952595B1
:100CF0002F5F31E0811101C030E0230FE1E0F0E02F
:100D0000EC0FFD1FE20FF11DA1E0B0E002C0AA0F41
:100D1000BB1F8A95E2F7CD019081982B90836ECF0F
:100D2000811153C0503244F450E26ACF86E04DC086
:100D300082E04BC085E049C08B81883819F052E0D1
:100D400044E002C053E043E080E090E092012D0DCA
:100D5000311DF901E80FF91F652F680FA1E0B0E020
:100D6000AC0FBD1FA60FB11D6C9161830196841756
:100D700080F38A85833031F58B85811123C09E01F4
:100D80002D5F3F4F41E0B401C3010E945E0381111A
:100D90001CC09B81F4018181981316C09C818281C3
:100DA000981312C0808182FF02C0B394BCCED201DE
:100DB0001B968C931B978B2D880F8B0D8F5F8C93BD
:100DC00080E003C081E001C087E02D960FB6F89463
:100DD000DEBF0FBECDBFDF91CF911F910F91FF906E
:100DE000EF90DF90CF90BF90AF909F908F907F90CB
:100DF0006F905F904F903F902F900895CF93DF9327
:100E000000D01F92CDB7DEB722E02B83AE014D5F3D
:100E10005F4FBE016F5F7F4F0E946705882331F0EF
:100E200091E0823009F090E0892F01C081E00F90BD
:100E30000F900F90DF91CF91089540E0BC010E9488
:100E40006C0591E0811190E0892F08951F920F9217
:100E50000FB60F9211242F933F938F939F93AF93CD
:100E6000BF938091A7019091A801A091A901B09191
:100E7000AA013091A60123E0230F2D3720F401961B
:100E8000A11DB11D05C026E8230F0296A11DB11DAD
:100E90002093A6018093A7019093A801A093A90194
:100EA000B093AA018091AB019091AC01A091AD01EA
:100EB000B091AE010196A11DB11D8093AB0190933D
:100EC000AC01A093AD01B093AE01BF91AF919F91E2
:100ED0008F913F912F910F900FBE0F901F901895FB
:100EE0003FB7F8948091AB019091AC01A091AD0116
:100EF000B091AE0126B5A89B05C02F3F19F0019611
:100F0000A11DB11D3FBF6627782F892F9A2F620F31
:100F1000711D811D911D42E0660F771F881F991F6B
:100F20004A95D1F708958F929F92AF92BF92CF9238
:100F3000DF92EF92FF926B017C010E9470074B01E0
:100F40005C01C114D104E104F104F1F00E94FE0B34
:100F50000E947007681979098A099B09683E7340E5
:100F60008105910570F321E0C21AD108E108F1086A
:100F700088EE880E83E0981EA11CB11CC114D10418
:100F8000E104F10429F7DDCFFF90EF90DF90CF90DF
:100F9000BF90AF909F908F900895789484B58260B1
:100FA00084BD84B5816084BD85B5826085BD85B50D
:100FB000816085BDEEE6F0E0808181608083E1E8BC
:100FC000F0E01082808182608083808181608083F4
:100FD000E0E8F0E0808181608083E1EBF0E08081F7
:100FE00084608083E0EBF0E0808181608083EAE7C9
:100FF000F0E0808184608083808182608083808152
:10100000816080838081806880831092C100089510
:10101000833081F028F4813099F08230A1F0089576
:101020008730A9F08830B9F08430D1F48091800005
:101030008F7D03C0809180008F778093800008951A
:1010400084B58F7702C084B58F7D84BD089580916B
:10105000B0008F7703C08091B0008F7D8093B00087
:101060000895CF93DF9390E0FC01E458FF4F249163
:10107000FC01E057FF4F8491882349F190E0880FED
:10108000991FFC01E854FF4FA591B49182559F4FE1
:10109000FC01C591D4919FB7611108C0F8948C915F
:1010A000209582238C93888182230AC0623051F478
:1010B000F8948C91322F309583238C938881822BE6
:1010C000888304C0F8948C91822B8C939FBFDF910E
:1010D000CF9108950F931F93CF93DF931F92CDB7B6
:1010E000DEB7282F30E0F901E859FF4F8491F9016C
:1010F000E458FF4F1491F901E057FF4F049100238A
:10110000C9F0882321F069830E9408086981E02FD3
:10111000F0E0EE0FFF1FE255FF4FA591B4919FB78E
:10112000F8948C91611103C01095812301C0812B2B
:101130008C939FBF0F90DF91CF911F910F910895D6
:10114000CF93DF93282F30E0F901E859FF4F8491C6
:10115000F901E458FF4FD491F901E057FF4FC491D2
:10116000CC2391F081110E940808EC2FF0E0EE0FE3
:10117000FF1FEC55FF4FA591B4912C912D2381E0D9
:1011800090E021F480E002C080E090E0DF91CF9118
:101190000895FC01818D228D90E0805C9F4F821B21
:1011A00091098F7399270895FC01918D828D98176D
:1011B00031F0828DE80FF11D858D90E008958FEF5D
:1011C0009FEF0895FC01918D828D981761F0828DBB
:1011D000DF01A80FB11D5D968C91928D9F5F9F736B
:1011E000928F90E008958FEF9FEF089586E69AE042
:1011F000892B49F080E090E0892B29F00E94660A53
:1012000081110C9400000895FC01848DDF01A80F6A
:10121000B11DA35ABF4F2C91848D90E001968F731E
:101220009927848FA689B7892C93A089B1898C913D
:1012300080648C93938D848D981306C00288F38903
:10124000E02D80818F7D80830895CF93DF93EC0123
:10125000888D8823C9F0EA89FB89808185FD05C0D6
:10126000A889B9898C9186FD0FC00FB607FCF5CF10
:10127000808185FFF2CFA889B9898C9185FFEDCF58
:10128000CE010E940409E7CFDF91CF910895CF925C
:10129000DF92FF920F931F93CF93DF931F92CDB7EF
:1012A000DEB76C0181E0D60158968C9358975B9617
:1012B0009C915B975C968C915C97981307C05096B5
:1012C000ED91FC915197808185FD2EC0F601038D33
:1012D00010E00F5F1F4F0F731127F02EF601848D62
:1012E000F81211C00FB607FCF9CFD6015096ED9158
:1012F000FC915197808185FFF1CFC60169830E94DF
:1013000004096981EBCF838DE80FF11DE35AFF4F8C
:101310006083D6015B960C935B975296ED91FC919E
:101320005397808180620CC0D6015696ED91FC9156
:10133000579760835096ED91FC915197808180641E
:10134000808381E090E00F90DF91CF911F910F910A
:10135000FF90DF90CF900895BF92CF92DF92EF92EF
:10136000FF92CF93DF93EC016A017B01B22EE889F3
:10137000F98982E08083411581EE58076105710586
:10138000A1F060E079E08DE390E0A70196010E9472
:10139000FF0B215031094109510956954795379561
:1013A0002795211580E1380798F0E889F98910829E
:1013B00060E874E88EE190E0A70196010E94FF0BBF
:1013C000215031094109510956954795379527957F
:1013D000EC85FD853083EE85FF852083188EEC89B2
:1013E000FD89B082EA89FB89808180618083EA89F6
:1013F000FB89808188608083EA89FB89808180689D
:101400008083EA89FB8980818F7D8083DF91CF9102
:10141000FF90EF90DF90CF90BF9008951F920F92B2
:101420000FB60F9211242F938F939F93EF93FF93F7
:10143000E091BF01F091C0018081E091C501F09180
:10144000C60182FD12C090818091C8018F5F8F73A9
:101450002091C901821751F0E091C801F0E0E155F7
:10146000FE4F958F8093C80101C08081FF91EF915D
:101470009F918F912F910F900FBE0F901F901895F5
:101480001F920F920FB60F9211242F933F934F93F9
:101490005F936F937F938F939F93AF93BF93EF93DC
:1014A000FF938FEA91E00E940409FF91EF91BF91B1
:1014B000AF919F918F917F916F915F914F913F91EC
:1014C0002F910F900FBE0F901F9018958FEA91E00B
:1014D0000E94C90821E0892B09F420E0822F089599
:1014E0001092B2011092B10188EE93E0A0E0B0E05A
:1014F0008093B3019093B401A093B501B093B6016A
:1015000081E491E09093B0018093AF0185EC90E08D
:101510009093BC018093BB0184EC90E09093BE015A
:101520008093BD0180EC90E09093C0018093BF0157
:1015300081EC90E09093C2018093C10182EC90E035
:101540009093C4018093C30186EC90E09093C60110
:101550008093C5011092C8011092C9011092CA016E
:101560001092CB01089508950E94CD070E94B30AFE
:101570000E948E00C6EFD8E00E94B2002097E1F3EF
:101580000E94F608F9CFCF92DF92EF92FF920F936D
:101590001F93CF93DF937C016A01EB0100E010E021
:1015A0000C151D0571F06991D701ED91FC91019029
:1015B000F081E02DC7010995892B19F00F5F1F4FAE
:1015C000EFCFC801DF91CF911F910F91FF90EF9066
:1015D000DF90CF9008956115710581F0DB010D90CA
:1015E0000020E9F7AD0141505109461B570BDC01C2
:1015F000ED91FC910280F381E02D099480E090E070
:1016000008956DE471E00C94EB0A0F931F93CF9350
:10161000DF93EC010E94EB0A8C01CE010E94010BCA
:10162000800F911FDF91CF911F910F9108958F929D
:101630009F92AF92BF92DF92EF92FF920F931F9310
:10164000CF93DF93CDB7DEB7A1970FB6F894DEBF87
:101650000FBECDBF7C01F42FD52ECB0119A22230B5
:1016600008F42AE08E010F5D1F4F822E912CA12CD1
:10167000B12C6F2F7D2DA50194010E94FF0BF22F3D
:10168000D32ECA01015011096A3014F4E0E301C0FD
:10169000E7E3E60FD801EC93232B242B252B49F706
:1016A000B801C7010E94EB0AA1960FB6F894DEBFFD
:1016B0000FBECDBFDF91CF911F910F91FF90EF90A3
:1016C000DF90BF90AF909F908F90089521153105C6
:1016D00041F4DC01ED91FC910190F081E02D642F4B
:1016E00009940C94170B9A01462F50E060E070E0CB
:1016F0000C94660BFC01808191810C94BF0CCF93FC
:10170000DF93EC0188819981009711F00E94BF0C52
:10171000198218821D821C821B821A82DF91CF914E
:1017200008950F931F93CF93DF93EC018B016F5FAD
:101730007F4F888199810E944E0D009731F09983E7
:1017400088831B830A8381E001C080E0DF91CF9111
:101750001F910F910895CF93DF93EC0188819981B8
:10176000892B29F08A819B818617970760F4CE0127
:101770000E94910B882341F08C819D81892B19F463
:10178000E881F981108281E0DF91CF910895EF9295
:10179000FF920F931F93CF93DF93EC017B018A019C
:1017A000BA010E94AB0B811104C0CE010E947F0BD5
:1017B00007C01D830C83B701888199810E94210E87
:1017C000CE01DF91CF911F910F91FF90EF9008957F
:1017D000FC0111821082138212821582148261151B
:1017E000710559F0FB0101900020E9F7AF0141506C
:1017F0005109461B570B0C94C70B08950895A1E29D
:101800001A2EAA1BBB1BFD010DC0AA1FBB1FEE1F7A
:10181000FF1FA217B307E407F50720F0A21BB30BC5
:10182000E40BF50B661F771F881F991F1A9469F741
:1018300060957095809590959B01AC01BD01CF019D
:101840000895EE0FFF1F0590F491E02D0994CF93BA
:10185000DF938230910510F482E090E0E0914E0237
:10186000F0914F0220E030E0A0E0B0E0309739F195
:101870004081518148175907B8F04817590771F44A
:1018800082819381109729F013969C938E931297DF
:101890002CC090934F0280934E0227C02115310532
:1018A00031F04217530718F0A901DB0101C0EF0125
:1018B0009A01BD01DF010280F381E02DD7CF211510
:1018C0003105F9F0281B390B2430310580F48A8169
:1018D0009B816115710521F0FB019383828304C014
:1018E00090934F0280934E02FE01329644C0FE0157
:1018F000E20FF31F8193919322503109398328839A
:101900003AC020914C0230914D02232B41F420919A
:1019100002013091030130934D0220934C0220913B
:101920000001309101012115310541F42DB73EB779
:101930004091040150910501241B350BE0914C02AC
:10194000F0914D02E217F307A0F42E1B3F0B28176E
:10195000390778F0AC014E5F5F4F2417350748F028
:101960004E0F5F1F50934D0240934C028193919311
:1019700002C0E0E0F0E0CF01DF91CF910895CF9376
:10198000DF93009709F487C0FC013297138212821B
:10199000C0914E02D0914F02209781F42081318175
:1019A000280F391F80914C0290914D0282179307A6
:1019B00079F5F0934D02E0934C026DC0DE0120E01A
:1019C00030E0AE17BF0750F412964D915C9113971B
:1019D0009D014115510509F1DA01F3CFB383A283CB
:1019E00040815181840F951F8A179B0771F48D9157
:1019F0009C911197840F951F029691838083129674
:101A00008D919C911397938382832115310529F43D
:101A1000F0934F02E0934E023EC0D9011396FC931F
:101A2000EE9312974D915D91A40FB51FEA17FB0736
:101A300079F480819181840F951F0296D9011196C6
:101A40009C938E938281938113969C938E9312978D
:101A5000E0E0F0E08A819B81009719F0FE01EC0143
:101A6000F9CFCE01029628813981820F931F2091F0
:101A70004C0230914D022817390769F4309729F448
:101A800010924F0210924E0202C013821282D09323
:101A90004D02C0934C02DF91CF910895A0E0B0E0D9
:101AA000E4E5FDE00C942C0EEC01CB01209719F439
:101AB0000E94270CB8C0FE01E60FF71F9E012250BE
:101AC0003109E217F30708F4ACC0D9010D911C915C
:101AD000119706171707B8F00530110508F49FC0D5
:101AE000A801445051094617570708F498C00250FE
:101AF0001109061B170B019311936D937C93CF0172
:101B00000E94BF0C8CC05B01A01AB10A4E01800E6E
:101B1000911EA0914E02B0914F02612C712C60E099
:101B200070E0109709F449C0A815B905C9F5ED9002
:101B3000FC901197670142E0C40ED11CCA14DB046B
:101B400078F147018A189B08640142E0C40ED11C59
:101B50001296BC9012971396AC91B5E0CB16D104B7
:101B600040F0B282A38391828082D9018D939C93AD
:101B700009C00E5F1F4F0E0D1F1DF9011183008359
:101B8000EB2DFA2F6115710531F0DB011396FC93F3
:101B9000EE93129744C0F0934F02E0934E023FC081
:101BA0006D917C9111976616770608F43B01BD0193
:101BB00012960D90BC91A02DB4CF60914C02709103
:101BC0004D0268157905E9F468167906D0F440915C
:101BD0000001509101014115510541F44DB75EB727
:101BE0006091040170910501461B570BE417F5073E
:101BF000C0F4F0934D02E0934C02F901918380838D
:101C00000EC00E94270C7C01009759F0A801BE016C
:101C10000E94180ECE010E94BF0CC70104C0CE0165
:101C200002C080E090E0CDB7DEB7EEE00C94480E45
:101C3000FB01DC0102C001900D9241505040D8F7E9
:101C40000895FB01DC0101900D920020E1F7089559
:101C50002F923F924F925F926F927F928F929F92BC
:101C6000AF92BF92CF92DF92EF92FF920F931F93AA
:101C7000CF93DF93CDB7DEB7CA1BDB0B0FB6F8945B
:101C8000DEBF0FBECDBF09942A88398848885F849B
:101C90006E847D848C849B84AA84B984C884DF800C
:101CA000EE80FD800C811B81AA81B981CE0FD11DF0
:101CB0000FB6F894DEBF0FBECDBFED01089510E062
:101CC000C6ECD0E004C0FE010E94230C2296C83C62
:081CD000D107C9F7F894FFCF1A
:101CD8000000500280000100000008000F00100002
:101CE800496E697469616C697A696E67004C6F6FD7
:101CF80070696E670043617264204465746563743B
:101D080065640043617264205265616400000000EC
:101D1800004709C30AC908E208D40825090D0A00C2
:0E1D28006E616E00696E66006F7666002E00BA
:00000001FF
